{
	"_format": "hh-sol-artifact-1",
	"contractName": "Collectible1155",
	"sourceName": "contracts/Collectible1155.sol",
	"abi": [
		{
			"anonymous": false,
			"inputs": [
				{
					"indexed": true,
					"internalType": "address",
					"name": "account",
					"type": "address"
				},
				{
					"indexed": true,
					"internalType": "address",
					"name": "operator",
					"type": "address"
				},
				{
					"indexed": false,
					"internalType": "bool",
					"name": "approved",
					"type": "bool"
				}
			],
			"name": "ApprovalForAll",
			"type": "event"
		},
		{
			"anonymous": false,
			"inputs": [
				{
					"indexed": false,
					"internalType": "uint8",
					"name": "version",
					"type": "uint8"
				}
			],
			"name": "Initialized",
			"type": "event"
		},
		{
			"anonymous": false,
			"inputs": [
				{
					"indexed": false,
					"internalType": "address",
					"name": "account",
					"type": "address"
				}
			],
			"name": "Paused",
			"type": "event"
		},
		{
			"anonymous": false,
			"inputs": [
				{
					"indexed": true,
					"internalType": "bytes32",
					"name": "role",
					"type": "bytes32"
				},
				{
					"indexed": true,
					"internalType": "bytes32",
					"name": "previousAdminRole",
					"type": "bytes32"
				},
				{
					"indexed": true,
					"internalType": "bytes32",
					"name": "newAdminRole",
					"type": "bytes32"
				}
			],
			"name": "RoleAdminChanged",
			"type": "event"
		},
		{
			"anonymous": false,
			"inputs": [
				{
					"indexed": true,
					"internalType": "bytes32",
					"name": "role",
					"type": "bytes32"
				},
				{
					"indexed": true,
					"internalType": "address",
					"name": "account",
					"type": "address"
				},
				{
					"indexed": true,
					"internalType": "address",
					"name": "sender",
					"type": "address"
				}
			],
			"name": "RoleGranted",
			"type": "event"
		},
		{
			"anonymous": false,
			"inputs": [
				{
					"indexed": true,
					"internalType": "bytes32",
					"name": "role",
					"type": "bytes32"
				},
				{
					"indexed": true,
					"internalType": "address",
					"name": "account",
					"type": "address"
				},
				{
					"indexed": true,
					"internalType": "address",
					"name": "sender",
					"type": "address"
				}
			],
			"name": "RoleRevoked",
			"type": "event"
		},
		{
			"anonymous": false,
			"inputs": [
				{
					"indexed": true,
					"internalType": "address",
					"name": "operator",
					"type": "address"
				},
				{
					"indexed": true,
					"internalType": "address",
					"name": "from",
					"type": "address"
				},
				{
					"indexed": true,
					"internalType": "address",
					"name": "to",
					"type": "address"
				},
				{
					"indexed": false,
					"internalType": "uint256[]",
					"name": "ids",
					"type": "uint256[]"
				},
				{
					"indexed": false,
					"internalType": "uint256[]",
					"name": "values",
					"type": "uint256[]"
				}
			],
			"name": "TransferBatch",
			"type": "event"
		},
		{
			"anonymous": false,
			"inputs": [
				{
					"indexed": true,
					"internalType": "address",
					"name": "operator",
					"type": "address"
				},
				{
					"indexed": true,
					"internalType": "address",
					"name": "from",
					"type": "address"
				},
				{
					"indexed": true,
					"internalType": "address",
					"name": "to",
					"type": "address"
				},
				{
					"indexed": false,
					"internalType": "uint256",
					"name": "id",
					"type": "uint256"
				},
				{
					"indexed": false,
					"internalType": "uint256",
					"name": "value",
					"type": "uint256"
				}
			],
			"name": "TransferSingle",
			"type": "event"
		},
		{
			"anonymous": false,
			"inputs": [
				{
					"indexed": false,
					"internalType": "string",
					"name": "value",
					"type": "string"
				},
				{
					"indexed": true,
					"internalType": "uint256",
					"name": "id",
					"type": "uint256"
				}
			],
			"name": "URI",
			"type": "event"
		},
		{
			"anonymous": false,
			"inputs": [
				{
					"indexed": false,
					"internalType": "address",
					"name": "account",
					"type": "address"
				}
			],
			"name": "Unpaused",
			"type": "event"
		},
		{
			"inputs": [],
			"name": "BURNER_ROLE",
			"outputs": [
				{
					"internalType": "bytes32",
					"name": "",
					"type": "bytes32"
				}
			],
			"stateMutability": "view",
			"type": "function"
		},
		{
			"inputs": [],
			"name": "DEFAULT_ADMIN_ROLE",
			"outputs": [
				{
					"internalType": "bytes32",
					"name": "",
					"type": "bytes32"
				}
			],
			"stateMutability": "view",
			"type": "function"
		},
		{
			"inputs": [],
			"name": "MINTER_ROLE",
			"outputs": [
				{
					"internalType": "bytes32",
					"name": "",
					"type": "bytes32"
				}
			],
			"stateMutability": "view",
			"type": "function"
		},
		{
			"inputs": [],
			"name": "PAUSER_ROLE",
			"outputs": [
				{
					"internalType": "bytes32",
					"name": "",
					"type": "bytes32"
				}
			],
			"stateMutability": "view",
			"type": "function"
		},
		{
			"inputs": [],
			"name": "URI_SETTER_ROLE",
			"outputs": [
				{
					"internalType": "bytes32",
					"name": "",
					"type": "bytes32"
				}
			],
			"stateMutability": "view",
			"type": "function"
		},
		{
			"inputs": [
				{
					"internalType": "address",
					"name": "_admin",
					"type": "address"
				},
				{
					"internalType": "bool",
					"name": "_isAutoIncrementalId",
					"type": "bool"
				}
			],
			"name": "__Collectible1155_init",
			"outputs": [],
			"stateMutability": "nonpayable",
			"type": "function"
		},
		{
			"inputs": [
				{
					"internalType": "bytes32",
					"name": "feature",
					"type": "bytes32"
				}
			],
			"name": "addFeature",
			"outputs": [],
			"stateMutability": "nonpayable",
			"type": "function"
		},
		{
			"inputs": [
				{
					"internalType": "address",
					"name": "account",
					"type": "address"
				},
				{
					"internalType": "uint256",
					"name": "id",
					"type": "uint256"
				}
			],
			"name": "balanceOf",
			"outputs": [
				{
					"internalType": "uint256",
					"name": "",
					"type": "uint256"
				}
			],
			"stateMutability": "view",
			"type": "function"
		},
		{
			"inputs": [
				{
					"internalType": "address[]",
					"name": "accounts",
					"type": "address[]"
				},
				{
					"internalType": "uint256[]",
					"name": "ids",
					"type": "uint256[]"
				}
			],
			"name": "balanceOfBatch",
			"outputs": [
				{
					"internalType": "uint256[]",
					"name": "",
					"type": "uint256[]"
				}
			],
			"stateMutability": "view",
			"type": "function"
		},
		{
			"inputs": [],
			"name": "getMyTokenIds",
			"outputs": [
				{
					"internalType": "uint256[]",
					"name": "tokenArray",
					"type": "uint256[]"
				}
			],
			"stateMutability": "view",
			"type": "function"
		},
		{
			"inputs": [
				{
					"internalType": "bytes32",
					"name": "role",
					"type": "bytes32"
				}
			],
			"name": "getRoleAdmin",
			"outputs": [
				{
					"internalType": "bytes32",
					"name": "",
					"type": "bytes32"
				}
			],
			"stateMutability": "view",
			"type": "function"
		},
		{
			"inputs": [],
			"name": "giveAccessToExchangeToSale",
			"outputs": [],
			"stateMutability": "nonpayable",
			"type": "function"
		},
		{
			"inputs": [
				{
					"internalType": "bytes32",
					"name": "role",
					"type": "bytes32"
				},
				{
					"internalType": "address",
					"name": "account",
					"type": "address"
				}
			],
			"name": "grantRole",
			"outputs": [],
			"stateMutability": "nonpayable",
			"type": "function"
		},
		{
			"inputs": [
				{
					"internalType": "address",
					"name": "_to",
					"type": "address"
				}
			],
			"name": "grantRoleBurner",
			"outputs": [],
			"stateMutability": "nonpayable",
			"type": "function"
		},
		{
			"inputs": [
				{
					"internalType": "address",
					"name": "_to",
					"type": "address"
				}
			],
			"name": "grantRoleMinter",
			"outputs": [],
			"stateMutability": "nonpayable",
			"type": "function"
		},
		{
			"inputs": [
				{
					"internalType": "address",
					"name": "_to",
					"type": "address"
				}
			],
			"name": "grantRolePauser",
			"outputs": [],
			"stateMutability": "nonpayable",
			"type": "function"
		},
		{
			"inputs": [
				{
					"internalType": "address",
					"name": "_to",
					"type": "address"
				}
			],
			"name": "grantRoleURISetter",
			"outputs": [],
			"stateMutability": "nonpayable",
			"type": "function"
		},
		{
			"inputs": [
				{
					"internalType": "bytes32",
					"name": "role",
					"type": "bytes32"
				},
				{
					"internalType": "address",
					"name": "account",
					"type": "address"
				}
			],
			"name": "hasRole",
			"outputs": [
				{
					"internalType": "bool",
					"name": "",
					"type": "bool"
				}
			],
			"stateMutability": "view",
			"type": "function"
		},
		{
			"inputs": [
				{
					"internalType": "uint256",
					"name": "_amount",
					"type": "uint256"
				},
				{
					"internalType": "uint256",
					"name": "_tokenId",
					"type": "uint256"
				}
			],
			"name": "increaseSupply",
			"outputs": [],
			"stateMutability": "nonpayable",
			"type": "function"
		},
		{
			"inputs": [
				{
					"internalType": "address",
					"name": "account",
					"type": "address"
				},
				{
					"internalType": "address",
					"name": "operator",
					"type": "address"
				}
			],
			"name": "isApprovedForAll",
			"outputs": [
				{
					"internalType": "bool",
					"name": "",
					"type": "bool"
				}
			],
			"stateMutability": "view",
			"type": "function"
		},
		{
			"inputs": [],
			"name": "isAutoIncrementalId",
			"outputs": [
				{
					"internalType": "bool",
					"name": "",
					"type": "bool"
				}
			],
			"stateMutability": "view",
			"type": "function"
		},
		{
			"inputs": [
				{
					"internalType": "bytes32",
					"name": "feature",
					"type": "bytes32"
				}
			],
			"name": "isFeatureEnabled",
			"outputs": [
				{
					"internalType": "bool",
					"name": "",
					"type": "bool"
				}
			],
			"stateMutability": "view",
			"type": "function"
		},
		{
			"inputs": [
				{
					"internalType": "string",
					"name": "_tokenURI",
					"type": "string"
				}
			],
			"name": "isURIAvailable",
			"outputs": [
				{
					"internalType": "bool",
					"name": "isAvailable",
					"type": "bool"
				}
			],
			"stateMutability": "view",
			"type": "function"
		},
		{
			"inputs": [
				{
					"internalType": "string",
					"name": "_tokenURI",
					"type": "string"
				},
				{
					"internalType": "uint256",
					"name": "_amount",
					"type": "uint256"
				}
			],
			"name": "mint",
			"outputs": [
				{
					"internalType": "uint256",
					"name": "tokenId",
					"type": "uint256"
				}
			],
			"stateMutability": "nonpayable",
			"type": "function"
		},
		{
			"inputs": [
				{
					"internalType": "string",
					"name": "_tokenURI",
					"type": "string"
				},
				{
					"internalType": "uint256",
					"name": "_amount",
					"type": "uint256"
				},
				{
					"internalType": "uint256",
					"name": "_tokenId",
					"type": "uint256"
				}
			],
			"name": "mint",
			"outputs": [],
			"stateMutability": "nonpayable",
			"type": "function"
		},
		{
			"inputs": [
				{
					"internalType": "address",
					"name": "_to",
					"type": "address"
				},
				{
					"internalType": "uint256[]",
					"name": "_amounts",
					"type": "uint256[]"
				},
				{
					"internalType": "string[]",
					"name": "_tokenURIs",
					"type": "string[]"
				}
			],
			"name": "mintBatch",
			"outputs": [],
			"stateMutability": "nonpayable",
			"type": "function"
		},
		{
			"inputs": [
				{
					"internalType": "address",
					"name": "_to",
					"type": "address"
				},
				{
					"internalType": "uint256[]",
					"name": "_ids",
					"type": "uint256[]"
				},
				{
					"internalType": "uint256[]",
					"name": "_amounts",
					"type": "uint256[]"
				},
				{
					"internalType": "string[]",
					"name": "_tokenURIs",
					"type": "string[]"
				}
			],
			"name": "mintBatch",
			"outputs": [],
			"stateMutability": "nonpayable",
			"type": "function"
		},
		{
			"inputs": [],
			"name": "pause",
			"outputs": [],
			"stateMutability": "nonpayable",
			"type": "function"
		},
		{
			"inputs": [],
			"name": "paused",
			"outputs": [
				{
					"internalType": "bool",
					"name": "",
					"type": "bool"
				}
			],
			"stateMutability": "view",
			"type": "function"
		},
		{
			"inputs": [
				{
					"internalType": "bytes32",
					"name": "feature",
					"type": "bytes32"
				}
			],
			"name": "removeFeature",
			"outputs": [],
			"stateMutability": "nonpayable",
			"type": "function"
		},
		{
			"inputs": [
				{
					"internalType": "bytes32",
					"name": "role",
					"type": "bytes32"
				},
				{
					"internalType": "address",
					"name": "account",
					"type": "address"
				}
			],
			"name": "renounceRole",
			"outputs": [],
			"stateMutability": "nonpayable",
			"type": "function"
		},
		{
			"inputs": [
				{
					"internalType": "bytes32",
					"name": "role",
					"type": "bytes32"
				},
				{
					"internalType": "address",
					"name": "account",
					"type": "address"
				}
			],
			"name": "revokeRole",
			"outputs": [],
			"stateMutability": "nonpayable",
			"type": "function"
		},
		{
			"inputs": [
				{
					"internalType": "address",
					"name": "_to",
					"type": "address"
				}
			],
			"name": "revokeRoleBurner",
			"outputs": [],
			"stateMutability": "nonpayable",
			"type": "function"
		},
		{
			"inputs": [
				{
					"internalType": "address",
					"name": "_to",
					"type": "address"
				}
			],
			"name": "revokeRoleMinter",
			"outputs": [],
			"stateMutability": "nonpayable",
			"type": "function"
		},
		{
			"inputs": [
				{
					"internalType": "address",
					"name": "_to",
					"type": "address"
				}
			],
			"name": "revokeRolePauser",
			"outputs": [],
			"stateMutability": "nonpayable",
			"type": "function"
		},
		{
			"inputs": [
				{
					"internalType": "address",
					"name": "_to",
					"type": "address"
				}
			],
			"name": "revokeRoleURISetter",
			"outputs": [],
			"stateMutability": "nonpayable",
			"type": "function"
		},
		{
			"inputs": [
				{
					"internalType": "address",
					"name": "from",
					"type": "address"
				},
				{
					"internalType": "address",
					"name": "to",
					"type": "address"
				},
				{
					"internalType": "uint256[]",
					"name": "ids",
					"type": "uint256[]"
				},
				{
					"internalType": "uint256[]",
					"name": "amounts",
					"type": "uint256[]"
				},
				{
					"internalType": "bytes",
					"name": "data",
					"type": "bytes"
				}
			],
			"name": "safeBatchTransferFrom",
			"outputs": [],
			"stateMutability": "nonpayable",
			"type": "function"
		},
		{
			"inputs": [
				{
					"internalType": "address",
					"name": "from",
					"type": "address"
				},
				{
					"internalType": "address",
					"name": "to",
					"type": "address"
				},
				{
					"internalType": "uint256",
					"name": "id",
					"type": "uint256"
				},
				{
					"internalType": "uint256",
					"name": "amount",
					"type": "uint256"
				},
				{
					"internalType": "bytes",
					"name": "data",
					"type": "bytes"
				}
			],
			"name": "safeTransferFrom",
			"outputs": [],
			"stateMutability": "nonpayable",
			"type": "function"
		},
		{
			"inputs": [
				{
					"internalType": "address",
					"name": "operator",
					"type": "address"
				},
				{
					"internalType": "bool",
					"name": "approved",
					"type": "bool"
				}
			],
			"name": "setApprovalForAll",
			"outputs": [],
			"stateMutability": "nonpayable",
			"type": "function"
		},
		{
			"inputs": [
				{
					"internalType": "address",
					"name": "_exchangeAddress",
					"type": "address"
				}
			],
			"name": "setExchangeContractAddress",
			"outputs": [],
			"stateMutability": "nonpayable",
			"type": "function"
		},
		{
			"inputs": [
				{
					"internalType": "uint256",
					"name": "_tokenId",
					"type": "uint256"
				},
				{
					"internalType": "string",
					"name": "_tokenURI",
					"type": "string"
				}
			],
			"name": "setTokenURI",
			"outputs": [],
			"stateMutability": "nonpayable",
			"type": "function"
		},
		{
			"inputs": [
				{
					"internalType": "bytes4",
					"name": "_interfaceId",
					"type": "bytes4"
				}
			],
			"name": "supportsInterface",
			"outputs": [
				{
					"internalType": "bool",
					"name": "interfaceSupported",
					"type": "bool"
				}
			],
			"stateMutability": "view",
			"type": "function"
		},
		{
			"inputs": [
				{
					"internalType": "address",
					"name": "_to",
					"type": "address"
				}
			],
			"name": "transferAdminRole",
			"outputs": [],
			"stateMutability": "nonpayable",
			"type": "function"
		},
		{
			"inputs": [
				{
					"internalType": "address",
					"name": "_from",
					"type": "address"
				},
				{
					"internalType": "address",
					"name": "_to",
					"type": "address"
				},
				{
					"internalType": "uint256",
					"name": "_tokenId",
					"type": "uint256"
				},
				{
					"internalType": "uint256",
					"name": "_amount",
					"type": "uint256"
				},
				{
					"internalType": "bytes",
					"name": "_data",
					"type": "bytes"
				}
			],
			"name": "transferAssetAndPrice",
			"outputs": [],
			"stateMutability": "payable",
			"type": "function"
		},
		{
			"inputs": [],
			"name": "unpause",
			"outputs": [],
			"stateMutability": "nonpayable",
			"type": "function"
		},
		{
			"inputs": [
				{
					"internalType": "uint256",
					"name": "tokenId",
					"type": "uint256"
				}
			],
			"name": "uri",
			"outputs": [
				{
					"internalType": "string",
					"name": "",
					"type": "string"
				}
			],
			"stateMutability": "view",
			"type": "function"
		}
	],
	"bytecode": "0x608060405234801561001057600080fd5b50614532806100206000396000f3fe6080604052600436106102fc5760003560e01c80637ba0ca0d1161018f578063a5de9979116100e1578063d547741f1161008a578063e9e7e59911610064578063e9e7e59914610902578063f242432a14610922578063fdd5d37f14610942576102fc565b8063d547741f14610865578063e63ab1e914610885578063e985e9c5146108b9576102fc565b8063c71bb9f7116100bb578063c71bb9f7146107f1578063d487274e14610811578063d539139314610831576102fc565b8063a5de997914610791578063ada8f919146107b1578063b0501a62146107d1576102fc565b80638f815d8a11610143578063a217fddf1161011d578063a217fddf1461073c578063a22cb46514610751578063a55784ef14610771576102fc565b80638f815d8a146106b657806391d14854146106d65780639740ea291461071c576102fc565b80638375774811610174578063837577481461066e5780638456cb591461068e578063875bf4f4146106a3576102fc565b80637ba0ca0d146106255780637f3457101461063a576102fc565b806329b9b1bd11610253578063470e700c116101fc5780634e1273f4116101d65780634e1273f4146105c3578063500cf5da146105f05780635c975abb14610610576102fc565b8063470e700c1461056357806347af267b146105835780634de8c956146105a3576102fc565b806336568abe1161022d57806336568abe1461050e5780633d3995761461052e5780633f4ba83a1461054e576102fc565b806329b9b1bd146104b95780632eb2c2d6146104ce5780632f2ff15d146104ee576102fc565b8063162094c4116102b55780631c7a3c9d1161028f5780631c7a3c9d14610435578063248a9ca314610455578063282c51f314610485576102fc565b8063162094c4146103d35780631bb1058a146103f35780631c635ded14610415576102fc565b8063056b01ce116102e6578063056b01ce146103645780630e89341c14610384578063146d9ddc146103b1576102fc565b8062fdd58e1461030157806301ffc9a714610334575b600080fd5b34801561030d57600080fd5b5061032161031c366004613db1565b610962565b6040519081526020015b60405180910390f35b34801561034057600080fd5b5061035461034f366004613edd565b610a0d565b604051901515815260200161032b565b34801561037057600080fd5b5061032161037f366004613f50565b610a70565b34801561039057600080fd5b506103a461039f366004613ea3565b610c85565b60405161032b91906142d9565b3480156103bd57600080fd5b506103d16103cc366004613c71565b610d65565b005b3480156103df57600080fd5b506103d16103ee366004613fdf565b61116a565b3480156103ff57600080fd5b506101325461035490600160a01b900460ff1681565b34801561042157600080fd5b506103d1610430366004613f93565b611214565b34801561044157600080fd5b506103d1610450366004613b1c565b611405565b34801561046157600080fd5b50610321610470366004613ea3565b600090815260c9602052604090206001015490565b34801561049157600080fd5b506103217f3c11d16cbaffd01df69ce1c404f6340ee057498f5f00246190ea54220576a84881565b3480156104c557600080fd5b506103d1611490565b3480156104da57600080fd5b506103d16104e9366004613b68565b611503565b3480156104fa57600080fd5b506103d1610509366004613ebb565b6115a5565b34801561051a57600080fd5b506103d1610529366004613ebb565b6115cf565b34801561053a57600080fd5b506103d1610549366004613ea3565b611657565b34801561055a57600080fd5b506103d1611664565b34801561056f57600080fd5b506103d161057e366004613b1c565b6116e2565b34801561058f57600080fd5b5061035461059e366004613ea3565b61170c565b3480156105af57600080fd5b506103d16105be366004613ea3565b61172e565b3480156105cf57600080fd5b506105e36105de366004613dda565b611738565b60405161032b91906142a1565b3480156105fc57600080fd5b506103d161060b366004613d77565b6118ae565b34801561061c57600080fd5b50610354611a4d565b34801561063157600080fd5b506105e3611a57565b34801561064657600080fd5b506103217f7804d923f43a17d325d77e781528e0793b2edd9890ab45fc64efd7b4b427744c81565b34801561067a57600080fd5b50610354610689366004613f15565b611ab9565b34801561069a57600080fd5b506103d1611ae6565b6103d16106b1366004613c0e565b611b64565b3480156106c257600080fd5b506103d16106d1366004613b1c565b611c4b565b3480156106e257600080fd5b506103546106f1366004613ebb565b600091825260c9602090815260408084206001600160a01b0393909316845291905290205460ff1690565b34801561072857600080fd5b506103d1610737366004613b1c565b611c75565b34801561074857600080fd5b50610321600081565b34801561075d57600080fd5b506103d161076c366004613d77565b611c9f565b34801561077d57600080fd5b506103d161078c366004613ce2565b611caa565b34801561079d57600080fd5b506103d16107ac366004613b1c565b611ff5565b3480156107bd57600080fd5b506103d16107cc366004613b1c565b61201f565b3480156107dd57600080fd5b506103d16107ec366004613b1c565b612035565b3480156107fd57600080fd5b506103d161080c366004613b1c565b61205f565b34801561081d57600080fd5b506103d161082c366004613b1c565b612089565b34801561083d57600080fd5b506103217f9f2df0fed2c77648de5860a4cc508cd0818c85b8b8a1ab4ceeef8d981c8956a681565b34801561087157600080fd5b506103d1610880366004613ebb565b6120af565b34801561089157600080fd5b506103217f65d7a28e3265b37a6474929f336521b332c1681b933f6cb9f3376673440d862a81565b3480156108c557600080fd5b506103546108d4366004613b36565b6001600160a01b03918216600090815260666020908152604080832093909416825291909152205460ff1690565b34801561090e57600080fd5b506103d161091d36600461401a565b6120d4565b34801561092e57600080fd5b506103d161093d366004613c0e565b6121f1565b34801561094e57600080fd5b506103d161095d366004613b1c565b61228c565b60006001600160a01b0383166109e55760405162461bcd60e51b815260206004820152602a60248201527f455243313135353a2061646472657373207a65726f206973206e6f742061207660448201527f616c6964206f776e65720000000000000000000000000000000000000000000060648201526084015b60405180910390fd5b5060009081526065602090815260408083206001600160a01b03949094168352929052205490565b60006001600160e01b03198216636cdb3d1360e11b1480610a3e57506001600160e01b031982166303a24d0760e21b145b80610a5957506001600160e01b0319821663377e7a5b60e01b145b80610a685750610a68826122b6565b90505b919050565b6000610a9c7f9f2df0fed2c77648de5860a4cc508cd0818c85b8b8a1ab4ceeef8d981c8956a6336106f1565b610ae85760405162461bcd60e51b815260206004820152601e60248201527f5573657220646f6573206e6f742068617665206d696e74657220726f6c65000060448201526064016109dc565b61013254600160a01b900460ff16610b425760405162461bcd60e51b815260206004820152600f60248201527f50617373206120746f6b656e204944000000000000000000000000000000000060448201526064016109dc565b61012e83604051610b5391906140bd565b9081526040519081900360200190205460ff1615610bb35760405162461bcd60e51b815260206004820152601760248201527f546f6b656e55524920616c72656164792065786973747300000000000000000060448201526064016109dc565b6000610bbf61012d5490565b9050610bd061012d80546001019055565b6000818152610130602090815260409091208551610bf0928701906138f1565b50600161012e85604051610c0491906140bd565b908152602001604051809103902060006101000a81548160ff021916908315150217905550610c51338285604051806040016040528060048152602001630307830360e41b8152506122db565b610c5b81856123f1565b33600090815261012f60209081526040822080546001810182559083529120018190559392505050565b600081815260986020526040812080546060929190610ca39061438e565b80601f0160208091040260200160405190810160405280929190818152602001828054610ccf9061438e565b8015610d1c5780601f10610cf157610100808354040283529160200191610d1c565b820191906000526020600020905b815481529060010190602001808311610cff57829003601f168201915b505050505090506000815111610d3a57610d3583612455565b610d5e565b609781604051602001610d4e9291906140d9565b6040516020818303038152906040525b9392505050565b610d8f7f9f2df0fed2c77648de5860a4cc508cd0818c85b8b8a1ab4ceeef8d981c8956a6336106f1565b610ddb5760405162461bcd60e51b815260206004820152601e60248201527f5573657220646f6573206e6f742068617665206d696e74657220726f6c65000060448201526064016109dc565b61013254600160a01b900460ff16610e355760405162461bcd60e51b815260206004820152601a60248201527f4964204175746f20696e6372656d656e742064697361626c656400000000000060448201526064016109dc565b8051825114610e865760405162461bcd60e51b815260206004820152600f60248201527f4c656e677468206d69736d61746368000000000000000000000000000000000060448201526064016109dc565b815160008167ffffffffffffffff811115610eb157634e487b7160e01b600052604160045260246000fd5b604051908082528060200260200182016040528015610eda578160200160208202803683370190505b50905060005b82811015610f395761012d54828281518110610f0c57634e487b7160e01b600052603260045260246000fd5b602002602001018181525050610f2761012d80546001019055565b80610f31816143f6565b915050610ee0565b50610f62858286604051806040016040528060048152602001630307830360e41b8152506124e9565b60005b828110156111405761012e848281518110610f9057634e487b7160e01b600052603260045260246000fd5b6020026020010151604051610fa591906140bd565b9081526040519081900360200190205460ff16156110055760405162461bcd60e51b815260206004820152601760248201527f546f6b656e55524920616c72656164792065786973747300000000000000000060448201526064016109dc565b83818151811061102557634e487b7160e01b600052603260045260246000fd5b6020026020010151610130600084848151811061105257634e487b7160e01b600052603260045260246000fd5b60200260200101518152602001908152602001600020908051906020019061107b9291906138f1565b506110d482828151811061109f57634e487b7160e01b600052603260045260246000fd5b60200260200101518583815181106110c757634e487b7160e01b600052603260045260246000fd5b60200260200101516123f1565b600161012e8583815181106110f957634e487b7160e01b600052603260045260246000fd5b602002602001015160405161110e91906140bd565b908152604051908190036020019020805491151560ff1990921691909117905580611138816143f6565b915050610f65565b5033600090815261012f60209081526040909120825161116292840190613975565b505050505050565b6111947f7804d923f43a17d325d77e781528e0793b2edd9890ab45fc64efd7b4b427744c336106f1565b6112065760405162461bcd60e51b815260206004820152602260248201527f5573657220646f6573206e6f742068617665205552492073657474657220726f60448201527f6c6500000000000000000000000000000000000000000000000000000000000060648201526084016109dc565b61121082826123f1565b5050565b61123e7f9f2df0fed2c77648de5860a4cc508cd0818c85b8b8a1ab4ceeef8d981c8956a6336106f1565b61128a5760405162461bcd60e51b815260206004820152601e60248201527f5573657220646f6573206e6f742068617665206d696e74657220726f6c65000060448201526064016109dc565b61013254600160a01b900460ff166112e45760405162461bcd60e51b815260206004820152601a60248201527f4964204175746f20696e6372656d656e742064697361626c656400000000000060448201526064016109dc565b61012e836040516112f591906140bd565b9081526040519081900360200190205460ff16156113555760405162461bcd60e51b815260206004820152601760248201527f546f6b656e55524920616c72656164792065786973747300000000000000000060448201526064016109dc565b6000818152610130602090815260409091208451611375928601906138f1565b50600161012e8460405161138991906140bd565b908152602001604051809103902060006101000a81548160ff0219169083151502179055506113d6338284604051806040016040528060048152602001630307830360e41b8152506122db565b6113e081846123f1565b33600090815261012f6020908152604082208054600181018255908352912001555050565b610132546001600160a01b031633146114605760405162461bcd60e51b815260206004820152601560248201527f596f7520617265206e6f74207468652061646d696e000000000000000000000060448201526064016109dc565b610131805473ffffffffffffffffffffffffffffffffffffffff19166001600160a01b0392909216919091179055565b610131546001600160a01b03166114e95760405162461bcd60e51b815260206004820152601960248201527f45786368616e67652061646472657373206973206e756c6c2e0000000000000060448201526064016109dc565b61013154611501906001600160a01b03166001611c9f565b565b6001600160a01b03851633148061151f575061151f85336108d4565b6115915760405162461bcd60e51b815260206004820152602f60248201527f455243313135353a2063616c6c6572206973206e6f7420746f6b656e206f776e60448201527f6572206e6f7220617070726f766564000000000000000000000000000000000060648201526084016109dc565b61159e85858585856126cc565b5050505050565b600082815260c960205260409020600101546115c081612941565b6115ca838361294b565b505050565b6001600160a01b038116331461164d5760405162461bcd60e51b815260206004820152602f60248201527f416363657373436f6e74726f6c3a2063616e206f6e6c792072656e6f756e636560448201527f20726f6c657320666f722073656c66000000000000000000000000000000000060648201526084016109dc565b61121082826129ed565b61166181306120af565b50565b61168e7f65d7a28e3265b37a6474929f336521b332c1681b933f6cb9f3376673440d862a336106f1565b6116da5760405162461bcd60e51b815260206004820152601e60248201527f5573657220646f6573206e6f7420686176652050617573657220726f6c65000060448201526064016109dc565b611501612a70565b6116617f65d7a28e3265b37a6474929f336521b332c1681b933f6cb9f3376673440d862a826115a5565b600081815260c96020908152604080832030845290915281205460ff16610a68565b61166181306115a5565b606081518351146117b15760405162461bcd60e51b815260206004820152602960248201527f455243313135353a206163636f756e747320616e6420696473206c656e67746860448201527f206d69736d61746368000000000000000000000000000000000000000000000060648201526084016109dc565b6000835167ffffffffffffffff8111156117db57634e487b7160e01b600052604160045260246000fd5b604051908082528060200260200182016040528015611804578160200160208202803683370190505b50905060005b84518110156118a65761186b85828151811061183657634e487b7160e01b600052603260045260246000fd5b602002602001015185838151811061185e57634e487b7160e01b600052603260045260246000fd5b6020026020010151610962565b82828151811061188b57634e487b7160e01b600052603260045260246000fd5b602090810291909101015261189f816143f6565b905061180a565b509392505050565b600054610100900460ff16158080156118ce5750600054600160ff909116105b806118e85750303b1580156118e8575060005460ff166001145b61195a5760405162461bcd60e51b815260206004820152602e60248201527f496e697469616c697a61626c653a20636f6e747261637420697320616c72656160448201527f647920696e697469616c697a656400000000000000000000000000000000000060648201526084016109dc565b6000805460ff19166001179055801561197d576000805461ff0019166101001790555b611985612ac2565b61198d612b35565b6119a560405180602001604052806000815250612c54565b610132805473ffffffffffffffffffffffffffffffffffffffff19166001600160a01b038516177fffffffffffffffffffffff00ffffffffffffffffffffffffffffffffffffffff16600160a01b84151502179055611a038361201f565b80156115ca576000805461ff0019169055604051600181527f7f26b83ff96e1f2b6a682f133852f6798a09c465da95921460cefb38474024989060200160405180910390a1505050565b60fb5460ff165b90565b33600090815261012f6020908152604091829020805483518184028101840190945280845260609392830182828015611aaf57602002820191906000526020600020905b815481526020019060010190808311611a9b575b5050505050905090565b600061012e82604051611acc91906140bd565b9081526040519081900360200190205460ff169050919050565b611b107f65d7a28e3265b37a6474929f336521b332c1681b933f6cb9f3376673440d862a336106f1565b611b5c5760405162461bcd60e51b815260206004820152601e60248201527f5573657220646f6573206e6f7420686176652050617573657220726f6c65000060448201526064016109dc565b611501612cc8565b610131546001600160a01b0316611bbd5760405162461bcd60e51b815260206004820152601960248201527f45786368616e67652061646472657373206973206e756c6c2e0000000000000060448201526064016109dc565b610131546001600160a01b03163314611c3e5760405162461bcd60e51b815260206004820152602b60248201527f546869732063616c6c206973206e6f742066726f6d207468652045786368616e60448201527f676520636f6e747261637400000000000000000000000000000000000000000060648201526084016109dc565b61159e85858585856121f1565b6116617f9f2df0fed2c77648de5860a4cc508cd0818c85b8b8a1ab4ceeef8d981c8956a6826115a5565b6116617f3c11d16cbaffd01df69ce1c404f6340ee057498f5f00246190ea54220576a848826115a5565b611210338383612d05565b611cd47f9f2df0fed2c77648de5860a4cc508cd0818c85b8b8a1ab4ceeef8d981c8956a6336106f1565b611d205760405162461bcd60e51b815260206004820152601e60248201527f5573657220646f6573206e6f742068617665206d696e74657220726f6c65000060448201526064016109dc565b61013254600160a01b900460ff1615611d7b5760405162461bcd60e51b815260206004820152601960248201527f4964204175746f20696e6372656d656e7420656e61626c65640000000000000060448201526064016109dc565b82518251148015611d8d575080518251145b611dd95760405162461bcd60e51b815260206004820152600f60248201527f4c656e677468206d69736d61746368000000000000000000000000000000000060448201526064016109dc565b611e01848484604051806040016040528060048152602001630307830360e41b8152506124e9565b60005b8351811015611fd35761012e828281518110611e3057634e487b7160e01b600052603260045260246000fd5b6020026020010151604051611e4591906140bd565b9081526040519081900360200190205460ff1615611ea55760405162461bcd60e51b815260206004820152601760248201527f546f6b656e55524920616c72656164792065786973747300000000000000000060448201526064016109dc565b818181518110611ec557634e487b7160e01b600052603260045260246000fd5b60200260200101516101306000868481518110611ef257634e487b7160e01b600052603260045260246000fd5b602002602001015181526020019081526020016000209080519060200190611f1b9291906138f1565b50611f67848281518110611f3f57634e487b7160e01b600052603260045260246000fd5b60200260200101518383815181106110c757634e487b7160e01b600052603260045260246000fd5b600161012e838381518110611f8c57634e487b7160e01b600052603260045260246000fd5b6020026020010151604051611fa191906140bd565b908152604051908190036020019020805491151560ff1990921691909117905580611fcb816143f6565b915050611e04565b5033600090815261012f60209081526040909120845161159e92860190613975565b6116617f9f2df0fed2c77648de5860a4cc508cd0818c85b8b8a1ab4ceeef8d981c8956a6826120af565b61202a6000826115a5565b611661600033610880565b6116617f7804d923f43a17d325d77e781528e0793b2edd9890ab45fc64efd7b4b427744c826115a5565b6116617f3c11d16cbaffd01df69ce1c404f6340ee057498f5f00246190ea54220576a848826120af565b6116617f65d7a28e3265b37a6474929f336521b332c1681b933f6cb9f3376673440d862a825b600082815260c960205260409020600101546120ca81612941565b6115ca83836129ed565b6120fe7f9f2df0fed2c77648de5860a4cc508cd0818c85b8b8a1ab4ceeef8d981c8956a6336106f1565b61214a5760405162461bcd60e51b815260206004820152601e60248201527f5573657220646f6573206e6f742068617665206d696e74657220726f6c65000060448201526064016109dc565b60006121563383610962565b116121c95760405162461bcd60e51b815260206004820152602960248201527f54686520696e697469616c20737570706c79206e6565647320746f206265203160448201527f206174206c65617374000000000000000000000000000000000000000000000060648201526084016109dc565b611210338284604051806040016040528060048152602001630307830360e41b8152506122db565b6001600160a01b03851633148061220d575061220d85336108d4565b61227f5760405162461bcd60e51b815260206004820152602f60248201527f455243313135353a2063616c6c6572206973206e6f7420746f6b656e206f776e60448201527f6572206e6f7220617070726f766564000000000000000000000000000000000060648201526084016109dc565b61159e8585858585612dfa565b6116617f7804d923f43a17d325d77e781528e0793b2edd9890ab45fc64efd7b4b427744c826120af565b60006001600160e01b0319821663377e7a5b60e01b1480610a685750610a6882612fa9565b6001600160a01b03841661233b5760405162461bcd60e51b815260206004820152602160248201527f455243313135353a206d696e7420746f20746865207a65726f206164647265736044820152607360f81b60648201526084016109dc565b33600061234785612fe7565b9050600061235485612fe7565b905060008681526065602090815260408083206001600160a01b038b16845290915281208054879290612388908490614310565b909155505060408051878152602081018790526001600160a01b03808a1692600092918716917fc3d58168c5ae7397731d063d5bbf3d657854427343f4c083240f7aacaa2d0f62910160405180910390a46123e883600089898989613040565b50505050505050565b60008281526098602090815260409091208251612410928401906138f1565b50817f6bb7ff708619ba0610cba295a58592e0451dee2622938c8755667688daf3529b61243c84610c85565b60405161244991906142d9565b60405180910390a25050565b6060606780546124649061438e565b80601f01602080910402602001604051908101604052809291908181526020018280546124909061438e565b80156124dd5780601f106124b2576101008083540402835291602001916124dd565b820191906000526020600020905b8154815290600101906020018083116124c057829003601f168201915b50505050509050919050565b6001600160a01b0384166125495760405162461bcd60e51b815260206004820152602160248201527f455243313135353a206d696e7420746f20746865207a65726f206164647265736044820152607360f81b60648201526084016109dc565b81518351146125ab5760405162461bcd60e51b815260206004820152602860248201527f455243313135353a2069647320616e6420616d6f756e7473206c656e677468206044820152670dad2e6dac2e8c6d60c31b60648201526084016109dc565b3360005b8451811015612664578381815181106125d857634e487b7160e01b600052603260045260246000fd5b60200260200101516065600087848151811061260457634e487b7160e01b600052603260045260246000fd5b602002602001015181526020019081526020016000206000886001600160a01b03166001600160a01b03168152602001908152602001600020600082825461264c9190614310565b9091555081905061265c816143f6565b9150506125af565b50846001600160a01b031660006001600160a01b0316826001600160a01b03167f4a39dc06d4c0dbc64b70af90fd698a233a518aa5d07e595d983b8c0526c8f7fb87876040516126b59291906142b4565b60405180910390a461159e816000878787876131f5565b815183511461272e5760405162461bcd60e51b815260206004820152602860248201527f455243313135353a2069647320616e6420616d6f756e7473206c656e677468206044820152670dad2e6dac2e8c6d60c31b60648201526084016109dc565b6001600160a01b0384166127925760405162461bcd60e51b815260206004820152602560248201527f455243313135353a207472616e7366657220746f20746865207a65726f206164604482015264647265737360d81b60648201526084016109dc565b3360005b84518110156128db5760008582815181106127c157634e487b7160e01b600052603260045260246000fd5b6020026020010151905060008583815181106127ed57634e487b7160e01b600052603260045260246000fd5b60209081029190910181015160008481526065835260408082206001600160a01b038e1683529093529190912054909150818110156128815760405162461bcd60e51b815260206004820152602a60248201527f455243313135353a20696e73756666696369656e742062616c616e636520666f60448201526939103a3930b739b332b960b11b60648201526084016109dc565b60008381526065602090815260408083206001600160a01b038e8116855292528083208585039055908b168252812080548492906128c0908490614310565b92505081905550505050806128d4906143f6565b9050612796565b50846001600160a01b0316866001600160a01b0316826001600160a01b03167f4a39dc06d4c0dbc64b70af90fd698a233a518aa5d07e595d983b8c0526c8f7fb878760405161292b9291906142b4565b60405180910390a46111628187878787876131f5565b6116618133613300565b600082815260c9602090815260408083206001600160a01b038516845290915290205460ff1661121057600082815260c9602090815260408083206001600160a01b03851684529091529020805460ff191660011790556129a93390565b6001600160a01b0316816001600160a01b0316837f2f8788117e7eff1d82e926ec794901d17c78024a50270940304540a733656f0d60405160405180910390a45050565b600082815260c9602090815260408083206001600160a01b038516845290915290205460ff161561121057600082815260c9602090815260408083206001600160a01b0385168085529252808320805460ff1916905551339285917ff6391f5c32d9c69d2a47ea670b442974b53935d1edc7fd64eb21e047a839171b9190a45050565b612a78613380565b60fb805460ff191690557f5db9ee0a495bf2e6ff9c91a7834c1ba4fdd244a5e8aa4e537bd38aeae4b073aa335b6040516001600160a01b03909116815260200160405180910390a1565b600054610100900460ff16612b2d5760405162461bcd60e51b815260206004820152602b60248201527f496e697469616c697a61626c653a20636f6e7472616374206973206e6f74206960448201526a6e697469616c697a696e6760a81b60648201526084016109dc565b6115016133d4565b600054610100900460ff16612ba05760405162461bcd60e51b815260206004820152602b60248201527f496e697469616c697a61626c653a20636f6e7472616374206973206e6f74206960448201526a6e697469616c697a696e6760a81b60648201526084016109dc565b612ba861344b565b612bd37f3c11d16cbaffd01df69ce1c404f6340ee057498f5f00246190ea54220576a84860006134c9565b612bfe7f65d7a28e3265b37a6474929f336521b332c1681b933f6cb9f3376673440d862a60006134c9565b612c297f7804d923f43a17d325d77e781528e0793b2edd9890ab45fc64efd7b4b427744c60006134c9565b6115017f9f2df0fed2c77648de5860a4cc508cd0818c85b8b8a1ab4ceeef8d981c8956a660006134c9565b600054610100900460ff16612cbf5760405162461bcd60e51b815260206004820152602b60248201527f496e697469616c697a61626c653a20636f6e7472616374206973206e6f74206960448201526a6e697469616c697a696e6760a81b60648201526084016109dc565b61166181613514565b612cd0613588565b60fb805460ff191660011790557f62e78cea01bee320cd4e420270b5ea74000d11b0c9f74754ebdbfc544b05a258612aa53390565b816001600160a01b0316836001600160a01b03161415612d8d5760405162461bcd60e51b815260206004820152602960248201527f455243313135353a2073657474696e6720617070726f76616c2073746174757360448201527f20666f722073656c66000000000000000000000000000000000000000000000060648201526084016109dc565b6001600160a01b03838116600081815260666020908152604080832094871680845294825291829020805460ff191686151590811790915591519182527f17307eab39ab6107e8899845ad3d59bd9653f200f220920489ca2b5937696c31910160405180910390a3505050565b6001600160a01b038416612e5e5760405162461bcd60e51b815260206004820152602560248201527f455243313135353a207472616e7366657220746f20746865207a65726f206164604482015264647265737360d81b60648201526084016109dc565b336000612e6a85612fe7565b90506000612e7785612fe7565b905060008681526065602090815260408083206001600160a01b038c16845290915290205485811015612eff5760405162461bcd60e51b815260206004820152602a60248201527f455243313135353a20696e73756666696369656e742062616c616e636520666f60448201526939103a3930b739b332b960b11b60648201526084016109dc565b60008781526065602090815260408083206001600160a01b038d8116855292528083208985039055908a16825281208054889290612f3e908490614310565b909155505060408051888152602081018890526001600160a01b03808b16928c821692918816917fc3d58168c5ae7397731d063d5bbf3d657854427343f4c083240f7aacaa2d0f62910160405180910390a4612f9e848a8a8a8a8a613040565b505050505050505050565b60006001600160e01b031982167f7965db0b000000000000000000000000000000000000000000000000000000001480610a685750610a68826135dd565b6040805160018082528183019092526060916000919060208083019080368337019050509050828160008151811061302f57634e487b7160e01b600052603260045260246000fd5b602090810291909101015292915050565b6001600160a01b0384163b156111625760405163f23a6e6160e01b81526001600160a01b0385169063f23a6e6190613084908990899088908890889060040161425e565b602060405180830381600087803b15801561309e57600080fd5b505af19250505080156130ce575060408051601f3d908101601f191682019092526130cb91810190613ef9565b60015b613184576130da61443d565b806308c379a0141561311457506130ef614454565b806130fa5750613116565b8060405162461bcd60e51b81526004016109dc91906142d9565b505b60405162461bcd60e51b815260206004820152603460248201527f455243313135353a207472616e7366657220746f206e6f6e204552433131353560448201527f526563656976657220696d706c656d656e74657200000000000000000000000060648201526084016109dc565b6001600160e01b0319811663f23a6e6160e01b146123e85760405162461bcd60e51b815260206004820152602860248201527f455243313135353a204552433131353552656365697665722072656a656374656044820152676420746f6b656e7360c01b60648201526084016109dc565b6001600160a01b0384163b156111625760405163bc197c8160e01b81526001600160a01b0385169063bc197c81906132399089908990889088908890600401614200565b602060405180830381600087803b15801561325357600080fd5b505af1925050508015613283575060408051601f3d908101601f1916820190925261328091810190613ef9565b60015b61328f576130da61443d565b6001600160e01b0319811663bc197c8160e01b146123e85760405162461bcd60e51b815260206004820152602860248201527f455243313135353a204552433131353552656365697665722072656a656374656044820152676420746f6b656e7360c01b60648201526084016109dc565b600082815260c9602090815260408083206001600160a01b038516845290915290205460ff166112105761333e816001600160a01b03166014613646565b613349836020613646565b60405160200161335a92919061417f565b60408051601f198184030181529082905262461bcd60e51b82526109dc916004016142d9565b613388611a4d565b6115015760405162461bcd60e51b815260206004820152601460248201527f5061757361626c653a206e6f742070617573656400000000000000000000000060448201526064016109dc565b600054610100900460ff1661343f5760405162461bcd60e51b815260206004820152602b60248201527f496e697469616c697a61626c653a20636f6e7472616374206973206e6f74206960448201526a6e697469616c697a696e6760a81b60648201526084016109dc565b60fb805460ff19169055565b600054610100900460ff166134b65760405162461bcd60e51b815260206004820152602b60248201527f496e697469616c697a61626c653a20636f6e7472616374206973206e6f74206960448201526a6e697469616c697a696e6760a81b60648201526084016109dc565b6134be61386d565b6115016000336138d8565b600082815260c96020526040808220600101805490849055905190918391839186917fbd79b86ffe0ab8e8776151514217cd7cacd52c909f66475c3af44e129f0b00ff9190a4505050565b600054610100900460ff1661357f5760405162461bcd60e51b815260206004820152602b60248201527f496e697469616c697a61626c653a20636f6e7472616374206973206e6f74206960448201526a6e697469616c697a696e6760a81b60648201526084016109dc565b611661816138e2565b613590611a4d565b156115015760405162461bcd60e51b815260206004820152601060248201527f5061757361626c653a207061757365640000000000000000000000000000000060448201526064016109dc565b60006001600160e01b03198216636cdb3d1360e11b148061360e57506001600160e01b031982166303a24d0760e21b145b80610a6857507f01ffc9a7000000000000000000000000000000000000000000000000000000006001600160e01b0319831614610a68565b60606000613655836002614328565b613660906002614310565b67ffffffffffffffff81111561368657634e487b7160e01b600052604160045260246000fd5b6040519080825280601f01601f1916602001820160405280156136b0576020820181803683370190505b5090507f3000000000000000000000000000000000000000000000000000000000000000816000815181106136f557634e487b7160e01b600052603260045260246000fd5b60200101906001600160f81b031916908160001a9053507f78000000000000000000000000000000000000000000000000000000000000008160018151811061374e57634e487b7160e01b600052603260045260246000fd5b60200101906001600160f81b031916908160001a9053506000613772846002614328565b61377d906001614310565b90505b600181111561381e577f303132333435363738396162636465660000000000000000000000000000000085600f16601081106137cc57634e487b7160e01b600052603260045260246000fd5b1a60f81b8282815181106137f057634e487b7160e01b600052603260045260246000fd5b60200101906001600160f81b031916908160001a90535060049490941c9361381781614377565b9050613780565b508315610d5e5760405162461bcd60e51b815260206004820181905260248201527f537472696e67733a20686578206c656e67746820696e73756666696369656e7460448201526064016109dc565b600054610100900460ff166115015760405162461bcd60e51b815260206004820152602b60248201527f496e697469616c697a61626c653a20636f6e7472616374206973206e6f74206960448201526a6e697469616c697a696e6760a81b60648201526084016109dc565b611210828261294b565b80516112109060679060208401905b8280546138fd9061438e565b90600052602060002090601f01602090048101928261391f5760008555613965565b82601f1061393857805160ff1916838001178555613965565b82800160010185558215613965579182015b8281111561396557825182559160200191906001019061394a565b506139719291506139af565b5090565b828054828255906000526020600020908101928215613965579160200282018281111561396557825182559160200191906001019061394a565b5b8082111561397157600081556001016139b0565b80356001600160a01b0381168114610a6b57600080fd5b600082601f8301126139eb578081fd5b813560206139f8826142ec565b604051613a0582826143c9565b8381528281019150858301855b85811015613a3b57613a29898684358b0101613aad565b84529284019290840190600101613a12565b5090979650505050505050565b600082601f830112613a58578081fd5b81356020613a65826142ec565b604051613a7282826143c9565b838152828101915085830183850287018401881015613a8f578586fd5b855b85811015613a3b57813584529284019290840190600101613a91565b600082601f830112613abd578081fd5b813567ffffffffffffffff811115613ad757613ad7614427565b604051613aee601f8301601f1916602001826143c9565b818152846020838601011115613b02578283fd5b816020850160208301379081016020019190915292915050565b600060208284031215613b2d578081fd5b610d5e826139c4565b60008060408385031215613b48578081fd5b613b51836139c4565b9150613b5f602084016139c4565b90509250929050565b600080600080600060a08688031215613b7f578081fd5b613b88866139c4565b9450613b96602087016139c4565b9350604086013567ffffffffffffffff80821115613bb2578283fd5b613bbe89838a01613a48565b94506060880135915080821115613bd3578283fd5b613bdf89838a01613a48565b93506080880135915080821115613bf4578283fd5b50613c0188828901613aad565b9150509295509295909350565b600080600080600060a08688031215613c25578081fd5b613c2e866139c4565b9450613c3c602087016139c4565b93506040860135925060608601359150608086013567ffffffffffffffff811115613c65578182fd5b613c0188828901613aad565b600080600060608486031215613c85578283fd5b613c8e846139c4565b9250602084013567ffffffffffffffff80821115613caa578384fd5b613cb687838801613a48565b93506040860135915080821115613ccb578283fd5b50613cd8868287016139db565b9150509250925092565b60008060008060808587031215613cf7578182fd5b613d00856139c4565b9350602085013567ffffffffffffffff80821115613d1c578384fd5b613d2888838901613a48565b94506040870135915080821115613d3d578384fd5b613d4988838901613a48565b93506060870135915080821115613d5e578283fd5b50613d6b878288016139db565b91505092959194509250565b60008060408385031215613d89578182fd5b613d92836139c4565b915060208301358015158114613da6578182fd5b809150509250929050565b60008060408385031215613dc3578182fd5b613dcc836139c4565b946020939093013593505050565b60008060408385031215613dec578182fd5b823567ffffffffffffffff80821115613e03578384fd5b818501915085601f830112613e16578384fd5b81356020613e23826142ec565b604051613e3082826143c9565b8381528281019150858301838502870184018b1015613e4d578889fd5b8896505b84871015613e7657613e62816139c4565b835260019690960195918301918301613e51565b5096505086013592505080821115613e8c578283fd5b50613e9985828601613a48565b9150509250929050565b600060208284031215613eb4578081fd5b5035919050565b60008060408385031215613ecd578182fd5b82359150613b5f602084016139c4565b600060208284031215613eee578081fd5b8135610d5e816144e6565b600060208284031215613f0a578081fd5b8151610d5e816144e6565b600060208284031215613f26578081fd5b813567ffffffffffffffff811115613f3c578182fd5b613f4884828501613aad565b949350505050565b60008060408385031215613f62578182fd5b823567ffffffffffffffff811115613f78578283fd5b613f8485828601613aad565b95602094909401359450505050565b600080600060608486031215613fa7578081fd5b833567ffffffffffffffff811115613fbd578182fd5b613fc986828701613aad565b9660208601359650604090950135949350505050565b60008060408385031215613ff1578182fd5b82359150602083013567ffffffffffffffff81111561400e578182fd5b613e9985828601613aad565b6000806040838503121561402c578182fd5b50508035926020909101359150565b6000815180845260208085019450808401835b8381101561406a5781518752958201959082019060010161404e565b509495945050505050565b6000815180845261408d816020860160208601614347565b601f01601f19169290920160200192915050565b600081516140b3818560208601614347565b9290920192915050565b600082516140cf818460208701614347565b9190910192915050565b82546000908190600281046001808316806140f557607f831692505b602080841082141561411557634e487b7160e01b87526022600452602487fd5b818015614129576001811461413a57614166565b60ff19861689528489019650614166565b60008b815260209020885b8681101561415e5781548b820152908501908301614145565b505084890196505b50505050505061417681856140a1565b95945050505050565b60007f416363657373436f6e74726f6c3a206163636f756e7420000000000000000000825283516141b7816017850160208801614347565b7f206973206d697373696e6720726f6c652000000000000000000000000000000060179184019182015283516141f4816028840160208801614347565b01602801949350505050565b60006001600160a01b03808816835280871660208401525060a0604083015261422c60a083018661403b565b828103606084015261423e818661403b565b905082810360808401526142528185614075565b98975050505050505050565b60006001600160a01b03808816835280871660208401525084604083015283606083015260a0608083015261429660a0830184614075565b979650505050505050565b600060208252610d5e602083018461403b565b6000604082526142c7604083018561403b565b8281036020840152614176818561403b565b600060208252610d5e6020830184614075565b600067ffffffffffffffff82111561430657614306614427565b5060209081020190565b6000821982111561432357614323614411565b500190565b600081600019048311821515161561434257614342614411565b500290565b60005b8381101561436257818101518382015260200161434a565b83811115614371576000848401525b50505050565b60008161438657614386614411565b506000190190565b6002810460018216806143a257607f821691505b602082108114156143c357634e487b7160e01b600052602260045260246000fd5b50919050565b601f8201601f1916810167ffffffffffffffff811182821017156143ef576143ef614427565b6040525050565b600060001982141561440a5761440a614411565b5060010190565b634e487b7160e01b600052601160045260246000fd5b634e487b7160e01b600052604160045260246000fd5b600060033d1115611a5457600481823e5160e01c90565b600060443d101561446457611a54565b6040516003193d81016004833e81513d67ffffffffffffffff8160248401118184111715614496575050505050611a54565b82850191508151818111156144b057505050505050611a54565b843d87010160208285010111156144cc57505050505050611a54565b6144db602082860101876143c9565b509094505050505090565b6001600160e01b03198116811461166157600080fdfea2646970667358221220ce914e0b1cb8d7d3933ff8feb5cbf0efde26090c1c6fc8f130795e3d422b21e264736f6c63430008020033",
	"linkReferences": {},
	"deployedLinkReferences": {}
}