{
	"_format": "hh-sol-artifact-1",
	"contractName": "Collectible1155",
	"sourceName": "contracts/Collectible1155.sol",
	"abi": [
		{
			"anonymous": false,
			"inputs": [
				{
					"indexed": true,
					"internalType": "address",
					"name": "account",
					"type": "address"
				},
				{
					"indexed": true,
					"internalType": "address",
					"name": "operator",
					"type": "address"
				},
				{
					"indexed": false,
					"internalType": "bool",
					"name": "approved",
					"type": "bool"
				}
			],
			"name": "ApprovalForAll",
			"type": "event"
		},
		{
			"anonymous": false,
			"inputs": [
				{
					"indexed": false,
					"internalType": "uint8",
					"name": "version",
					"type": "uint8"
				}
			],
			"name": "Initialized",
			"type": "event"
		},
		{
			"anonymous": false,
			"inputs": [
				{
					"indexed": false,
					"internalType": "address",
					"name": "account",
					"type": "address"
				}
			],
			"name": "Paused",
			"type": "event"
		},
		{
			"anonymous": false,
			"inputs": [
				{
					"indexed": true,
					"internalType": "bytes32",
					"name": "role",
					"type": "bytes32"
				},
				{
					"indexed": true,
					"internalType": "bytes32",
					"name": "previousAdminRole",
					"type": "bytes32"
				},
				{
					"indexed": true,
					"internalType": "bytes32",
					"name": "newAdminRole",
					"type": "bytes32"
				}
			],
			"name": "RoleAdminChanged",
			"type": "event"
		},
		{
			"anonymous": false,
			"inputs": [
				{
					"indexed": true,
					"internalType": "bytes32",
					"name": "role",
					"type": "bytes32"
				},
				{
					"indexed": true,
					"internalType": "address",
					"name": "account",
					"type": "address"
				},
				{
					"indexed": true,
					"internalType": "address",
					"name": "sender",
					"type": "address"
				}
			],
			"name": "RoleGranted",
			"type": "event"
		},
		{
			"anonymous": false,
			"inputs": [
				{
					"indexed": true,
					"internalType": "bytes32",
					"name": "role",
					"type": "bytes32"
				},
				{
					"indexed": true,
					"internalType": "address",
					"name": "account",
					"type": "address"
				},
				{
					"indexed": true,
					"internalType": "address",
					"name": "sender",
					"type": "address"
				}
			],
			"name": "RoleRevoked",
			"type": "event"
		},
		{
			"anonymous": false,
			"inputs": [
				{
					"indexed": true,
					"internalType": "address",
					"name": "operator",
					"type": "address"
				},
				{
					"indexed": true,
					"internalType": "address",
					"name": "from",
					"type": "address"
				},
				{
					"indexed": true,
					"internalType": "address",
					"name": "to",
					"type": "address"
				},
				{
					"indexed": false,
					"internalType": "uint256[]",
					"name": "ids",
					"type": "uint256[]"
				},
				{
					"indexed": false,
					"internalType": "uint256[]",
					"name": "values",
					"type": "uint256[]"
				}
			],
			"name": "TransferBatch",
			"type": "event"
		},
		{
			"anonymous": false,
			"inputs": [
				{
					"indexed": true,
					"internalType": "address",
					"name": "operator",
					"type": "address"
				},
				{
					"indexed": true,
					"internalType": "address",
					"name": "from",
					"type": "address"
				},
				{
					"indexed": true,
					"internalType": "address",
					"name": "to",
					"type": "address"
				},
				{
					"indexed": false,
					"internalType": "uint256",
					"name": "id",
					"type": "uint256"
				},
				{
					"indexed": false,
					"internalType": "uint256",
					"name": "value",
					"type": "uint256"
				}
			],
			"name": "TransferSingle",
			"type": "event"
		},
		{
			"anonymous": false,
			"inputs": [
				{
					"indexed": false,
					"internalType": "string",
					"name": "value",
					"type": "string"
				},
				{
					"indexed": true,
					"internalType": "uint256",
					"name": "id",
					"type": "uint256"
				}
			],
			"name": "URI",
			"type": "event"
		},
		{
			"anonymous": false,
			"inputs": [
				{
					"indexed": false,
					"internalType": "address",
					"name": "account",
					"type": "address"
				}
			],
			"name": "Unpaused",
			"type": "event"
		},
		{
			"inputs": [],
			"name": "BURNER_ROLE",
			"outputs": [
				{
					"internalType": "bytes32",
					"name": "",
					"type": "bytes32"
				}
			],
			"stateMutability": "view",
			"type": "function"
		},
		{
			"inputs": [],
			"name": "DEFAULT_ADMIN_ROLE",
			"outputs": [
				{
					"internalType": "bytes32",
					"name": "",
					"type": "bytes32"
				}
			],
			"stateMutability": "view",
			"type": "function"
		},
		{
			"inputs": [],
			"name": "MINTER_ROLE",
			"outputs": [
				{
					"internalType": "bytes32",
					"name": "",
					"type": "bytes32"
				}
			],
			"stateMutability": "view",
			"type": "function"
		},
		{
			"inputs": [],
			"name": "PAUSER_ROLE",
			"outputs": [
				{
					"internalType": "bytes32",
					"name": "",
					"type": "bytes32"
				}
			],
			"stateMutability": "view",
			"type": "function"
		},
		{
			"inputs": [],
			"name": "URI_SETTER_ROLE",
			"outputs": [
				{
					"internalType": "bytes32",
					"name": "",
					"type": "bytes32"
				}
			],
			"stateMutability": "view",
			"type": "function"
		},
		{
			"inputs": [
				{
					"internalType": "address",
					"name": "_admin",
					"type": "address"
				},
				{
					"internalType": "bool",
					"name": "_isAutoIncrementalId",
					"type": "bool"
				}
			],
			"name": "__Collectible1155_init",
			"outputs": [],
			"stateMutability": "nonpayable",
			"type": "function"
		},
		{
			"inputs": [
				{
					"internalType": "bytes32",
					"name": "feature",
					"type": "bytes32"
				}
			],
			"name": "addFeature",
			"outputs": [],
			"stateMutability": "nonpayable",
			"type": "function"
		},
		{
			"inputs": [
				{
					"internalType": "address",
					"name": "account",
					"type": "address"
				},
				{
					"internalType": "uint256",
					"name": "id",
					"type": "uint256"
				}
			],
			"name": "balanceOf",
			"outputs": [
				{
					"internalType": "uint256",
					"name": "",
					"type": "uint256"
				}
			],
			"stateMutability": "view",
			"type": "function"
		},
		{
			"inputs": [
				{
					"internalType": "address[]",
					"name": "accounts",
					"type": "address[]"
				},
				{
					"internalType": "uint256[]",
					"name": "ids",
					"type": "uint256[]"
				}
			],
			"name": "balanceOfBatch",
			"outputs": [
				{
					"internalType": "uint256[]",
					"name": "",
					"type": "uint256[]"
				}
			],
			"stateMutability": "view",
			"type": "function"
		},
		{
			"inputs": [],
			"name": "getMyTokenIds",
			"outputs": [
				{
					"internalType": "uint256[]",
					"name": "tokenArray",
					"type": "uint256[]"
				}
			],
			"stateMutability": "view",
			"type": "function"
		},
		{
			"inputs": [
				{
					"internalType": "bytes32",
					"name": "role",
					"type": "bytes32"
				}
			],
			"name": "getRoleAdmin",
			"outputs": [
				{
					"internalType": "bytes32",
					"name": "",
					"type": "bytes32"
				}
			],
			"stateMutability": "view",
			"type": "function"
		},
		{
			"inputs": [],
			"name": "giveAccessToExchangeToSale",
			"outputs": [],
			"stateMutability": "nonpayable",
			"type": "function"
		},
		{
			"inputs": [
				{
					"internalType": "bytes32",
					"name": "role",
					"type": "bytes32"
				},
				{
					"internalType": "address",
					"name": "account",
					"type": "address"
				}
			],
			"name": "grantRole",
			"outputs": [],
			"stateMutability": "nonpayable",
			"type": "function"
		},
		{
			"inputs": [
				{
					"internalType": "address",
					"name": "_to",
					"type": "address"
				}
			],
			"name": "grantRoleBurner",
			"outputs": [],
			"stateMutability": "nonpayable",
			"type": "function"
		},
		{
			"inputs": [
				{
					"internalType": "address",
					"name": "_to",
					"type": "address"
				}
			],
			"name": "grantRoleMinter",
			"outputs": [],
			"stateMutability": "nonpayable",
			"type": "function"
		},
		{
			"inputs": [
				{
					"internalType": "address",
					"name": "_to",
					"type": "address"
				}
			],
			"name": "grantRolePauser",
			"outputs": [],
			"stateMutability": "nonpayable",
			"type": "function"
		},
		{
			"inputs": [
				{
					"internalType": "address",
					"name": "_to",
					"type": "address"
				}
			],
			"name": "grantRoleURISetter",
			"outputs": [],
			"stateMutability": "nonpayable",
			"type": "function"
		},
		{
			"inputs": [
				{
					"internalType": "bytes32",
					"name": "role",
					"type": "bytes32"
				},
				{
					"internalType": "address",
					"name": "account",
					"type": "address"
				}
			],
			"name": "hasRole",
			"outputs": [
				{
					"internalType": "bool",
					"name": "",
					"type": "bool"
				}
			],
			"stateMutability": "view",
			"type": "function"
		},
		{
			"inputs": [
				{
					"internalType": "uint256",
					"name": "_amount",
					"type": "uint256"
				},
				{
					"internalType": "uint256",
					"name": "_tokenId",
					"type": "uint256"
				}
			],
			"name": "increaseSupply",
			"outputs": [],
			"stateMutability": "nonpayable",
			"type": "function"
		},
		{
			"inputs": [
				{
					"internalType": "address",
					"name": "account",
					"type": "address"
				},
				{
					"internalType": "address",
					"name": "operator",
					"type": "address"
				}
			],
			"name": "isApprovedForAll",
			"outputs": [
				{
					"internalType": "bool",
					"name": "",
					"type": "bool"
				}
			],
			"stateMutability": "view",
			"type": "function"
		},
		{
			"inputs": [],
			"name": "isAutoIncrementalId",
			"outputs": [
				{
					"internalType": "bool",
					"name": "",
					"type": "bool"
				}
			],
			"stateMutability": "view",
			"type": "function"
		},
		{
			"inputs": [
				{
					"internalType": "bytes32",
					"name": "feature",
					"type": "bytes32"
				}
			],
			"name": "isFeatureEnabled",
			"outputs": [
				{
					"internalType": "bool",
					"name": "",
					"type": "bool"
				}
			],
			"stateMutability": "view",
			"type": "function"
		},
		{
			"inputs": [
				{
					"internalType": "string",
					"name": "_tokenURI",
					"type": "string"
				}
			],
			"name": "isURIAvailable",
			"outputs": [
				{
					"internalType": "bool",
					"name": "isAvailable",
					"type": "bool"
				}
			],
			"stateMutability": "view",
			"type": "function"
		},
		{
			"inputs": [
				{
					"internalType": "string",
					"name": "_tokenURI",
					"type": "string"
				},
				{
					"internalType": "uint256",
					"name": "_amount",
					"type": "uint256"
				}
			],
			"name": "mint",
			"outputs": [
				{
					"internalType": "uint256",
					"name": "tokenId",
					"type": "uint256"
				}
			],
			"stateMutability": "nonpayable",
			"type": "function"
		},
		{
			"inputs": [
				{
					"internalType": "string",
					"name": "_tokenURI",
					"type": "string"
				},
				{
					"internalType": "uint256",
					"name": "_amount",
					"type": "uint256"
				},
				{
					"internalType": "uint256",
					"name": "_tokenId",
					"type": "uint256"
				}
			],
			"name": "mint",
			"outputs": [],
			"stateMutability": "nonpayable",
			"type": "function"
		},
		{
			"inputs": [
				{
					"internalType": "address",
					"name": "_to",
					"type": "address"
				},
				{
					"internalType": "uint256[]",
					"name": "_amounts",
					"type": "uint256[]"
				},
				{
					"internalType": "string[]",
					"name": "_tokenURIs",
					"type": "string[]"
				}
			],
			"name": "mintBatch",
			"outputs": [],
			"stateMutability": "nonpayable",
			"type": "function"
		},
		{
			"inputs": [
				{
					"internalType": "address",
					"name": "_to",
					"type": "address"
				},
				{
					"internalType": "uint256[]",
					"name": "_ids",
					"type": "uint256[]"
				},
				{
					"internalType": "uint256[]",
					"name": "_amounts",
					"type": "uint256[]"
				},
				{
					"internalType": "string[]",
					"name": "_tokenURIs",
					"type": "string[]"
				}
			],
			"name": "mintBatch",
			"outputs": [],
			"stateMutability": "nonpayable",
			"type": "function"
		},
		{
			"inputs": [],
			"name": "pause",
			"outputs": [],
			"stateMutability": "nonpayable",
			"type": "function"
		},
		{
			"inputs": [],
			"name": "paused",
			"outputs": [
				{
					"internalType": "bool",
					"name": "",
					"type": "bool"
				}
			],
			"stateMutability": "view",
			"type": "function"
		},
		{
			"inputs": [
				{
					"internalType": "bytes32",
					"name": "feature",
					"type": "bytes32"
				}
			],
			"name": "removeFeature",
			"outputs": [],
			"stateMutability": "nonpayable",
			"type": "function"
		},
		{
			"inputs": [
				{
					"internalType": "bytes32",
					"name": "role",
					"type": "bytes32"
				},
				{
					"internalType": "address",
					"name": "account",
					"type": "address"
				}
			],
			"name": "renounceRole",
			"outputs": [],
			"stateMutability": "nonpayable",
			"type": "function"
		},
		{
			"inputs": [
				{
					"internalType": "bytes32",
					"name": "role",
					"type": "bytes32"
				},
				{
					"internalType": "address",
					"name": "account",
					"type": "address"
				}
			],
			"name": "revokeRole",
			"outputs": [],
			"stateMutability": "nonpayable",
			"type": "function"
		},
		{
			"inputs": [
				{
					"internalType": "address",
					"name": "_to",
					"type": "address"
				}
			],
			"name": "revokeRoleBurner",
			"outputs": [],
			"stateMutability": "nonpayable",
			"type": "function"
		},
		{
			"inputs": [
				{
					"internalType": "address",
					"name": "_to",
					"type": "address"
				}
			],
			"name": "revokeRoleMinter",
			"outputs": [],
			"stateMutability": "nonpayable",
			"type": "function"
		},
		{
			"inputs": [
				{
					"internalType": "address",
					"name": "_to",
					"type": "address"
				}
			],
			"name": "revokeRolePauser",
			"outputs": [],
			"stateMutability": "nonpayable",
			"type": "function"
		},
		{
			"inputs": [
				{
					"internalType": "address",
					"name": "_to",
					"type": "address"
				}
			],
			"name": "revokeRoleURISetter",
			"outputs": [],
			"stateMutability": "nonpayable",
			"type": "function"
		},
		{
			"inputs": [
				{
					"internalType": "address",
					"name": "from",
					"type": "address"
				},
				{
					"internalType": "address",
					"name": "to",
					"type": "address"
				},
				{
					"internalType": "uint256[]",
					"name": "ids",
					"type": "uint256[]"
				},
				{
					"internalType": "uint256[]",
					"name": "amounts",
					"type": "uint256[]"
				},
				{
					"internalType": "bytes",
					"name": "data",
					"type": "bytes"
				}
			],
			"name": "safeBatchTransferFrom",
			"outputs": [],
			"stateMutability": "nonpayable",
			"type": "function"
		},
		{
			"inputs": [
				{
					"internalType": "address",
					"name": "from",
					"type": "address"
				},
				{
					"internalType": "address",
					"name": "to",
					"type": "address"
				},
				{
					"internalType": "uint256",
					"name": "id",
					"type": "uint256"
				},
				{
					"internalType": "uint256",
					"name": "amount",
					"type": "uint256"
				},
				{
					"internalType": "bytes",
					"name": "data",
					"type": "bytes"
				}
			],
			"name": "safeTransferFrom",
			"outputs": [],
			"stateMutability": "nonpayable",
			"type": "function"
		},
		{
			"inputs": [
				{
					"internalType": "address",
					"name": "operator",
					"type": "address"
				},
				{
					"internalType": "bool",
					"name": "approved",
					"type": "bool"
				}
			],
			"name": "setApprovalForAll",
			"outputs": [],
			"stateMutability": "nonpayable",
			"type": "function"
		},
		{
			"inputs": [
				{
					"internalType": "address",
					"name": "_exchangeAddress",
					"type": "address"
				}
			],
			"name": "setExchangeContractAddress",
			"outputs": [],
			"stateMutability": "nonpayable",
			"type": "function"
		},
		{
			"inputs": [
				{
					"internalType": "uint256",
					"name": "_tokenId",
					"type": "uint256"
				},
				{
					"internalType": "string",
					"name": "_tokenURI",
					"type": "string"
				}
			],
			"name": "setTokenURI",
			"outputs": [],
			"stateMutability": "nonpayable",
			"type": "function"
		},
		{
			"inputs": [
				{
					"internalType": "bytes4",
					"name": "_interfaceId",
					"type": "bytes4"
				}
			],
			"name": "supportsInterface",
			"outputs": [
				{
					"internalType": "bool",
					"name": "interfaceSupported",
					"type": "bool"
				}
			],
			"stateMutability": "view",
			"type": "function"
		},
		{
			"inputs": [
				{
					"internalType": "address",
					"name": "_to",
					"type": "address"
				}
			],
			"name": "transferAdminRole",
			"outputs": [],
			"stateMutability": "nonpayable",
			"type": "function"
		},
		{
			"inputs": [
				{
					"internalType": "address",
					"name": "_from",
					"type": "address"
				},
				{
					"internalType": "address",
					"name": "_to",
					"type": "address"
				},
				{
					"internalType": "uint256",
					"name": "_tokenId",
					"type": "uint256"
				},
				{
					"internalType": "uint256",
					"name": "_amount",
					"type": "uint256"
				},
				{
					"internalType": "bytes",
					"name": "_data",
					"type": "bytes"
				}
			],
			"name": "transferAssetAndPrice",
			"outputs": [],
			"stateMutability": "payable",
			"type": "function"
		},
		{
			"inputs": [],
			"name": "unpause",
			"outputs": [],
			"stateMutability": "nonpayable",
			"type": "function"
		},
		{
			"inputs": [
				{
					"internalType": "uint256",
					"name": "tokenId",
					"type": "uint256"
				}
			],
			"name": "uri",
			"outputs": [
				{
					"internalType": "string",
					"name": "",
					"type": "string"
				}
			],
			"stateMutability": "view",
			"type": "function"
		}
	],
	"bytecode": "0x608060405234801561001057600080fd5b5061435b806100206000396000f3fe6080604052600436106102fc5760003560e01c80637ba0ca0d1161018f578063a5de9979116100e1578063d547741f1161008a578063e9e7e59911610064578063e9e7e59914610902578063f242432a14610922578063fdd5d37f14610942576102fc565b8063d547741f14610865578063e63ab1e914610885578063e985e9c5146108b9576102fc565b8063c71bb9f7116100bb578063c71bb9f7146107f1578063d487274e14610811578063d539139314610831576102fc565b8063a5de997914610791578063ada8f919146107b1578063b0501a62146107d1576102fc565b80638f815d8a11610143578063a217fddf1161011d578063a217fddf1461073c578063a22cb46514610751578063a55784ef14610771576102fc565b80638f815d8a146106b657806391d14854146106d65780639740ea291461071c576102fc565b80638375774811610174578063837577481461066e5780638456cb591461068e578063875bf4f4146106a3576102fc565b80637ba0ca0d146106255780637f3457101461063a576102fc565b806329b9b1bd11610253578063470e700c116101fc5780634e1273f4116101d65780634e1273f4146105c3578063500cf5da146105f05780635c975abb14610610576102fc565b8063470e700c1461056357806347af267b146105835780634de8c956146105a3576102fc565b806336568abe1161022d57806336568abe1461050e5780633d3995761461052e5780633f4ba83a1461054e576102fc565b806329b9b1bd146104b95780632eb2c2d6146104ce5780632f2ff15d146104ee576102fc565b8063162094c4116102b55780631c7a3c9d1161028f5780631c7a3c9d14610435578063248a9ca314610455578063282c51f314610485576102fc565b8063162094c4146103d35780631bb1058a146103f35780631c635ded14610415576102fc565b8063056b01ce116102e6578063056b01ce146103645780630e89341c14610384578063146d9ddc146103b1576102fc565b8062fdd58e1461030157806301ffc9a714610334575b600080fd5b34801561030d57600080fd5b5061032161031c366004613bda565b610962565b6040519081526020015b60405180910390f35b34801561034057600080fd5b5061035461034f366004613d06565b610a0d565b604051901515815260200161032b565b34801561037057600080fd5b5061032161037f366004613d79565b610a70565b34801561039057600080fd5b506103a461039f366004613ccc565b610c10565b60405161032b9190614102565b3480156103bd57600080fd5b506103d16103cc366004613a9a565b610cf0565b005b3480156103df57600080fd5b506103d16103ee366004613e08565b61107f565b3480156103ff57600080fd5b506101325461035490600160a01b900460ff1681565b34801561042157600080fd5b506103d1610430366004613dbc565b611129565b34801561044157600080fd5b506103d1610450366004613945565b6112a4565b34801561046157600080fd5b50610321610470366004613ccc565b600090815260c9602052604090206001015490565b34801561049157600080fd5b506103217f3c11d16cbaffd01df69ce1c404f6340ee057498f5f00246190ea54220576a84881565b3480156104c557600080fd5b506103d161132f565b3480156104da57600080fd5b506103d16104e9366004613991565b6113a2565b3480156104fa57600080fd5b506103d1610509366004613ce4565b611444565b34801561051a57600080fd5b506103d1610529366004613ce4565b61146e565b34801561053a57600080fd5b506103d1610549366004613ccc565b6114f6565b34801561055a57600080fd5b506103d1611503565b34801561056f57600080fd5b506103d161057e366004613945565b611581565b34801561058f57600080fd5b5061035461059e366004613ccc565b6115ab565b3480156105af57600080fd5b506103d16105be366004613ccc565b6115cd565b3480156105cf57600080fd5b506105e36105de366004613c03565b6115d7565b60405161032b91906140ca565b3480156105fc57600080fd5b506103d161060b366004613ba0565b61174d565b34801561061c57600080fd5b506103546118ec565b34801561063157600080fd5b506105e36118f6565b34801561064657600080fd5b506103217f7804d923f43a17d325d77e781528e0793b2edd9890ab45fc64efd7b4b427744c81565b34801561067a57600080fd5b50610354610689366004613d3e565b611958565b34801561069a57600080fd5b506103d1611985565b6103d16106b1366004613a37565b611a03565b3480156106c257600080fd5b506103d16106d1366004613945565b611aea565b3480156106e257600080fd5b506103546106f1366004613ce4565b600091825260c9602090815260408084206001600160a01b0393909316845291905290205460ff1690565b34801561072857600080fd5b506103d1610737366004613945565b611b14565b34801561074857600080fd5b50610321600081565b34801561075d57600080fd5b506103d161076c366004613ba0565b611b3e565b34801561077d57600080fd5b506103d161078c366004613b0b565b611b49565b34801561079d57600080fd5b506103d16107ac366004613945565b611e1e565b3480156107bd57600080fd5b506103d16107cc366004613945565b611e48565b3480156107dd57600080fd5b506103d16107ec366004613945565b611e5e565b3480156107fd57600080fd5b506103d161080c366004613945565b611e88565b34801561081d57600080fd5b506103d161082c366004613945565b611eb2565b34801561083d57600080fd5b506103217f9f2df0fed2c77648de5860a4cc508cd0818c85b8b8a1ab4ceeef8d981c8956a681565b34801561087157600080fd5b506103d1610880366004613ce4565b611ed8565b34801561089157600080fd5b506103217f65d7a28e3265b37a6474929f336521b332c1681b933f6cb9f3376673440d862a81565b3480156108c557600080fd5b506103546108d436600461395f565b6001600160a01b03918216600090815260666020908152604080832093909416825291909152205460ff1690565b34801561090e57600080fd5b506103d161091d366004613e43565b611efd565b34801561092e57600080fd5b506103d161093d366004613a37565b61201a565b34801561094e57600080fd5b506103d161095d366004613945565b6120b5565b60006001600160a01b0383166109e55760405162461bcd60e51b815260206004820152602a60248201527f455243313135353a2061646472657373207a65726f206973206e6f742061207660448201527f616c6964206f776e65720000000000000000000000000000000000000000000060648201526084015b60405180910390fd5b5060009081526065602090815260408083206001600160a01b03949094168352929052205490565b60006001600160e01b03198216636cdb3d1360e11b1480610a3e57506001600160e01b031982166303a24d0760e21b145b80610a5957506001600160e01b0319821663377e7a5b60e01b145b80610a685750610a68826120df565b90505b919050565b61013254600090600160a01b900460ff16610acd5760405162461bcd60e51b815260206004820152600f60248201527f50617373206120746f6b656e204944000000000000000000000000000000000060448201526064016109dc565b61012e83604051610ade9190613ee6565b9081526040519081900360200190205460ff1615610b3e5760405162461bcd60e51b815260206004820152601760248201527f546f6b656e55524920616c72656164792065786973747300000000000000000060448201526064016109dc565b6000610b4a61012d5490565b9050610b5b61012d80546001019055565b6000818152610130602090815260409091208551610b7b9287019061371a565b50600161012e85604051610b8f9190613ee6565b908152602001604051809103902060006101000a81548160ff021916908315150217905550610bdc338285604051806040016040528060048152602001630307830360e41b815250612104565b610be6818561221a565b33600090815261012f60209081526040822080546001810182559083529120018190559392505050565b600081815260986020526040812080546060929190610c2e906141b7565b80601f0160208091040260200160405190810160405280929190818152602001828054610c5a906141b7565b8015610ca75780601f10610c7c57610100808354040283529160200191610ca7565b820191906000526020600020905b815481529060010190602001808311610c8a57829003601f168201915b505050505090506000815111610cc557610cc08361227e565b610ce9565b609781604051602001610cd9929190613f02565b6040516020818303038152906040525b9392505050565b61013254600160a01b900460ff16610d4a5760405162461bcd60e51b815260206004820152601a60248201527f4964204175746f20696e6372656d656e742064697361626c656400000000000060448201526064016109dc565b8051825114610d9b5760405162461bcd60e51b815260206004820152600f60248201527f4c656e677468206d69736d61746368000000000000000000000000000000000060448201526064016109dc565b815160008167ffffffffffffffff811115610dc657634e487b7160e01b600052604160045260246000fd5b604051908082528060200260200182016040528015610def578160200160208202803683370190505b50905060005b82811015610e4e5761012d54828281518110610e2157634e487b7160e01b600052603260045260246000fd5b602002602001018181525050610e3c61012d80546001019055565b80610e468161421f565b915050610df5565b50610e77858286604051806040016040528060048152602001630307830360e41b815250612312565b60005b828110156110555761012e848281518110610ea557634e487b7160e01b600052603260045260246000fd5b6020026020010151604051610eba9190613ee6565b9081526040519081900360200190205460ff1615610f1a5760405162461bcd60e51b815260206004820152601760248201527f546f6b656e55524920616c72656164792065786973747300000000000000000060448201526064016109dc565b838181518110610f3a57634e487b7160e01b600052603260045260246000fd5b60200260200101516101306000848481518110610f6757634e487b7160e01b600052603260045260246000fd5b602002602001015181526020019081526020016000209080519060200190610f9092919061371a565b50610fe9828281518110610fb457634e487b7160e01b600052603260045260246000fd5b6020026020010151858381518110610fdc57634e487b7160e01b600052603260045260246000fd5b602002602001015161221a565b600161012e85838151811061100e57634e487b7160e01b600052603260045260246000fd5b60200260200101516040516110239190613ee6565b908152604051908190036020019020805491151560ff199092169190911790558061104d8161421f565b915050610e7a565b5033600090815261012f6020908152604090912082516110779284019061379e565b505050505050565b6110a97f7804d923f43a17d325d77e781528e0793b2edd9890ab45fc64efd7b4b427744c336106f1565b61111b5760405162461bcd60e51b815260206004820152602260248201527f5573657220646f6573206e6f742068617665205552492073657474657220726f60448201527f6c6500000000000000000000000000000000000000000000000000000000000060648201526084016109dc565b611125828261221a565b5050565b61013254600160a01b900460ff166111835760405162461bcd60e51b815260206004820152601a60248201527f4964204175746f20696e6372656d656e742064697361626c656400000000000060448201526064016109dc565b61012e836040516111949190613ee6565b9081526040519081900360200190205460ff16156111f45760405162461bcd60e51b815260206004820152601760248201527f546f6b656e55524920616c72656164792065786973747300000000000000000060448201526064016109dc565b60008181526101306020908152604090912084516112149286019061371a565b50600161012e846040516112289190613ee6565b908152602001604051809103902060006101000a81548160ff021916908315150217905550611275338284604051806040016040528060048152602001630307830360e41b815250612104565b61127f818461221a565b33600090815261012f6020908152604082208054600181018255908352912001555050565b610132546001600160a01b031633146112ff5760405162461bcd60e51b815260206004820152601560248201527f596f7520617265206e6f74207468652061646d696e000000000000000000000060448201526064016109dc565b610131805473ffffffffffffffffffffffffffffffffffffffff19166001600160a01b0392909216919091179055565b610131546001600160a01b03166113885760405162461bcd60e51b815260206004820152601960248201527f45786368616e67652061646472657373206973206e756c6c2e0000000000000060448201526064016109dc565b610131546113a0906001600160a01b03166001611b3e565b565b6001600160a01b0385163314806113be57506113be85336108d4565b6114305760405162461bcd60e51b815260206004820152602f60248201527f455243313135353a2063616c6c6572206973206e6f7420746f6b656e206f776e60448201527f6572206e6f7220617070726f766564000000000000000000000000000000000060648201526084016109dc565b61143d85858585856124f5565b5050505050565b600082815260c9602052604090206001015461145f8161276a565b6114698383612774565b505050565b6001600160a01b03811633146114ec5760405162461bcd60e51b815260206004820152602f60248201527f416363657373436f6e74726f6c3a2063616e206f6e6c792072656e6f756e636560448201527f20726f6c657320666f722073656c66000000000000000000000000000000000060648201526084016109dc565b6111258282612816565b6115008130611ed8565b50565b61152d7f65d7a28e3265b37a6474929f336521b332c1681b933f6cb9f3376673440d862a336106f1565b6115795760405162461bcd60e51b815260206004820152601e60248201527f5573657220646f6573206e6f7420686176652050617573657220726f6c65000060448201526064016109dc565b6113a0612899565b6115007f65d7a28e3265b37a6474929f336521b332c1681b933f6cb9f3376673440d862a82611444565b600081815260c96020908152604080832030845290915281205460ff16610a68565b6115008130611444565b606081518351146116505760405162461bcd60e51b815260206004820152602960248201527f455243313135353a206163636f756e747320616e6420696473206c656e67746860448201527f206d69736d61746368000000000000000000000000000000000000000000000060648201526084016109dc565b6000835167ffffffffffffffff81111561167a57634e487b7160e01b600052604160045260246000fd5b6040519080825280602002602001820160405280156116a3578160200160208202803683370190505b50905060005b84518110156117455761170a8582815181106116d557634e487b7160e01b600052603260045260246000fd5b60200260200101518583815181106116fd57634e487b7160e01b600052603260045260246000fd5b6020026020010151610962565b82828151811061172a57634e487b7160e01b600052603260045260246000fd5b602090810291909101015261173e8161421f565b90506116a9565b509392505050565b600054610100900460ff161580801561176d5750600054600160ff909116105b806117875750303b158015611787575060005460ff166001145b6117f95760405162461bcd60e51b815260206004820152602e60248201527f496e697469616c697a61626c653a20636f6e747261637420697320616c72656160448201527f647920696e697469616c697a656400000000000000000000000000000000000060648201526084016109dc565b6000805460ff19166001179055801561181c576000805461ff0019166101001790555b6118246128eb565b61182c61295e565b61184460405180602001604052806000815250612a7d565b610132805473ffffffffffffffffffffffffffffffffffffffff19166001600160a01b038516177fffffffffffffffffffffff00ffffffffffffffffffffffffffffffffffffffff16600160a01b841515021790556118a283611e48565b8015611469576000805461ff0019169055604051600181527f7f26b83ff96e1f2b6a682f133852f6798a09c465da95921460cefb38474024989060200160405180910390a1505050565b60fb5460ff165b90565b33600090815261012f602090815260409182902080548351818402810184019094528084526060939283018282801561194e57602002820191906000526020600020905b81548152602001906001019080831161193a575b5050505050905090565b600061012e8260405161196b9190613ee6565b9081526040519081900360200190205460ff169050919050565b6119af7f65d7a28e3265b37a6474929f336521b332c1681b933f6cb9f3376673440d862a336106f1565b6119fb5760405162461bcd60e51b815260206004820152601e60248201527f5573657220646f6573206e6f7420686176652050617573657220726f6c65000060448201526064016109dc565b6113a0612af1565b610131546001600160a01b0316611a5c5760405162461bcd60e51b815260206004820152601960248201527f45786368616e67652061646472657373206973206e756c6c2e0000000000000060448201526064016109dc565b610131546001600160a01b03163314611add5760405162461bcd60e51b815260206004820152602b60248201527f546869732063616c6c206973206e6f742066726f6d207468652045786368616e60448201527f676520636f6e747261637400000000000000000000000000000000000000000060648201526084016109dc565b61143d858585858561201a565b6115007f9f2df0fed2c77648de5860a4cc508cd0818c85b8b8a1ab4ceeef8d981c8956a682611444565b6115007f3c11d16cbaffd01df69ce1c404f6340ee057498f5f00246190ea54220576a84882611444565b611125338383612b2e565b61013254600160a01b900460ff1615611ba45760405162461bcd60e51b815260206004820152601960248201527f4964204175746f20696e6372656d656e7420656e61626c65640000000000000060448201526064016109dc565b82518251148015611bb6575080518251145b611c025760405162461bcd60e51b815260206004820152600f60248201527f4c656e677468206d69736d61746368000000000000000000000000000000000060448201526064016109dc565b611c2a848484604051806040016040528060048152602001630307830360e41b815250612312565b60005b8351811015611dfc5761012e828281518110611c5957634e487b7160e01b600052603260045260246000fd5b6020026020010151604051611c6e9190613ee6565b9081526040519081900360200190205460ff1615611cce5760405162461bcd60e51b815260206004820152601760248201527f546f6b656e55524920616c72656164792065786973747300000000000000000060448201526064016109dc565b818181518110611cee57634e487b7160e01b600052603260045260246000fd5b60200260200101516101306000868481518110611d1b57634e487b7160e01b600052603260045260246000fd5b602002602001015181526020019081526020016000209080519060200190611d4492919061371a565b50611d90848281518110611d6857634e487b7160e01b600052603260045260246000fd5b6020026020010151838381518110610fdc57634e487b7160e01b600052603260045260246000fd5b600161012e838381518110611db557634e487b7160e01b600052603260045260246000fd5b6020026020010151604051611dca9190613ee6565b908152604051908190036020019020805491151560ff1990921691909117905580611df48161421f565b915050611c2d565b5033600090815261012f60209081526040909120845161143d9286019061379e565b6115007f9f2df0fed2c77648de5860a4cc508cd0818c85b8b8a1ab4ceeef8d981c8956a682611ed8565b611e53600082611444565b611500600033610880565b6115007f7804d923f43a17d325d77e781528e0793b2edd9890ab45fc64efd7b4b427744c82611444565b6115007f3c11d16cbaffd01df69ce1c404f6340ee057498f5f00246190ea54220576a84882611ed8565b6115007f65d7a28e3265b37a6474929f336521b332c1681b933f6cb9f3376673440d862a825b600082815260c96020526040902060010154611ef38161276a565b6114698383612816565b611f277f9f2df0fed2c77648de5860a4cc508cd0818c85b8b8a1ab4ceeef8d981c8956a6336106f1565b611f735760405162461bcd60e51b815260206004820152601e60248201527f5573657220646f6573206e6f742068617665206d696e74657220726f6c65000060448201526064016109dc565b6000611f7f3383610962565b11611ff25760405162461bcd60e51b815260206004820152602960248201527f54686520696e697469616c20737570706c79206e6565647320746f206265203160448201527f206174206c65617374000000000000000000000000000000000000000000000060648201526084016109dc565b611125338284604051806040016040528060048152602001630307830360e41b815250612104565b6001600160a01b038516331480612036575061203685336108d4565b6120a85760405162461bcd60e51b815260206004820152602f60248201527f455243313135353a2063616c6c6572206973206e6f7420746f6b656e206f776e60448201527f6572206e6f7220617070726f766564000000000000000000000000000000000060648201526084016109dc565b61143d8585858585612c23565b6115007f7804d923f43a17d325d77e781528e0793b2edd9890ab45fc64efd7b4b427744c82611ed8565b60006001600160e01b0319821663377e7a5b60e01b1480610a685750610a6882612dd2565b6001600160a01b0384166121645760405162461bcd60e51b815260206004820152602160248201527f455243313135353a206d696e7420746f20746865207a65726f206164647265736044820152607360f81b60648201526084016109dc565b33600061217085612e10565b9050600061217d85612e10565b905060008681526065602090815260408083206001600160a01b038b168452909152812080548792906121b1908490614139565b909155505060408051878152602081018790526001600160a01b03808a1692600092918716917fc3d58168c5ae7397731d063d5bbf3d657854427343f4c083240f7aacaa2d0f62910160405180910390a461221183600089898989612e69565b50505050505050565b600082815260986020908152604090912082516122399284019061371a565b50817f6bb7ff708619ba0610cba295a58592e0451dee2622938c8755667688daf3529b61226584610c10565b6040516122729190614102565b60405180910390a25050565b60606067805461228d906141b7565b80601f01602080910402602001604051908101604052809291908181526020018280546122b9906141b7565b80156123065780601f106122db57610100808354040283529160200191612306565b820191906000526020600020905b8154815290600101906020018083116122e957829003601f168201915b50505050509050919050565b6001600160a01b0384166123725760405162461bcd60e51b815260206004820152602160248201527f455243313135353a206d696e7420746f20746865207a65726f206164647265736044820152607360f81b60648201526084016109dc565b81518351146123d45760405162461bcd60e51b815260206004820152602860248201527f455243313135353a2069647320616e6420616d6f756e7473206c656e677468206044820152670dad2e6dac2e8c6d60c31b60648201526084016109dc565b3360005b845181101561248d5783818151811061240157634e487b7160e01b600052603260045260246000fd5b60200260200101516065600087848151811061242d57634e487b7160e01b600052603260045260246000fd5b602002602001015181526020019081526020016000206000886001600160a01b03166001600160a01b0316815260200190815260200160002060008282546124759190614139565b909155508190506124858161421f565b9150506123d8565b50846001600160a01b031660006001600160a01b0316826001600160a01b03167f4a39dc06d4c0dbc64b70af90fd698a233a518aa5d07e595d983b8c0526c8f7fb87876040516124de9291906140dd565b60405180910390a461143d8160008787878761301e565b81518351146125575760405162461bcd60e51b815260206004820152602860248201527f455243313135353a2069647320616e6420616d6f756e7473206c656e677468206044820152670dad2e6dac2e8c6d60c31b60648201526084016109dc565b6001600160a01b0384166125bb5760405162461bcd60e51b815260206004820152602560248201527f455243313135353a207472616e7366657220746f20746865207a65726f206164604482015264647265737360d81b60648201526084016109dc565b3360005b84518110156127045760008582815181106125ea57634e487b7160e01b600052603260045260246000fd5b60200260200101519050600085838151811061261657634e487b7160e01b600052603260045260246000fd5b60209081029190910181015160008481526065835260408082206001600160a01b038e1683529093529190912054909150818110156126aa5760405162461bcd60e51b815260206004820152602a60248201527f455243313135353a20696e73756666696369656e742062616c616e636520666f60448201526939103a3930b739b332b960b11b60648201526084016109dc565b60008381526065602090815260408083206001600160a01b038e8116855292528083208585039055908b168252812080548492906126e9908490614139565b92505081905550505050806126fd9061421f565b90506125bf565b50846001600160a01b0316866001600160a01b0316826001600160a01b03167f4a39dc06d4c0dbc64b70af90fd698a233a518aa5d07e595d983b8c0526c8f7fb87876040516127549291906140dd565b60405180910390a461107781878787878761301e565b6115008133613129565b600082815260c9602090815260408083206001600160a01b038516845290915290205460ff1661112557600082815260c9602090815260408083206001600160a01b03851684529091529020805460ff191660011790556127d23390565b6001600160a01b0316816001600160a01b0316837f2f8788117e7eff1d82e926ec794901d17c78024a50270940304540a733656f0d60405160405180910390a45050565b600082815260c9602090815260408083206001600160a01b038516845290915290205460ff161561112557600082815260c9602090815260408083206001600160a01b0385168085529252808320805460ff1916905551339285917ff6391f5c32d9c69d2a47ea670b442974b53935d1edc7fd64eb21e047a839171b9190a45050565b6128a16131a9565b60fb805460ff191690557f5db9ee0a495bf2e6ff9c91a7834c1ba4fdd244a5e8aa4e537bd38aeae4b073aa335b6040516001600160a01b03909116815260200160405180910390a1565b600054610100900460ff166129565760405162461bcd60e51b815260206004820152602b60248201527f496e697469616c697a61626c653a20636f6e7472616374206973206e6f74206960448201526a6e697469616c697a696e6760a81b60648201526084016109dc565b6113a06131fd565b600054610100900460ff166129c95760405162461bcd60e51b815260206004820152602b60248201527f496e697469616c697a61626c653a20636f6e7472616374206973206e6f74206960448201526a6e697469616c697a696e6760a81b60648201526084016109dc565b6129d1613274565b6129fc7f3c11d16cbaffd01df69ce1c404f6340ee057498f5f00246190ea54220576a84860006132f2565b612a277f65d7a28e3265b37a6474929f336521b332c1681b933f6cb9f3376673440d862a60006132f2565b612a527f7804d923f43a17d325d77e781528e0793b2edd9890ab45fc64efd7b4b427744c60006132f2565b6113a07f9f2df0fed2c77648de5860a4cc508cd0818c85b8b8a1ab4ceeef8d981c8956a660006132f2565b600054610100900460ff16612ae85760405162461bcd60e51b815260206004820152602b60248201527f496e697469616c697a61626c653a20636f6e7472616374206973206e6f74206960448201526a6e697469616c697a696e6760a81b60648201526084016109dc565b6115008161333d565b612af96133b1565b60fb805460ff191660011790557f62e78cea01bee320cd4e420270b5ea74000d11b0c9f74754ebdbfc544b05a2586128ce3390565b816001600160a01b0316836001600160a01b03161415612bb65760405162461bcd60e51b815260206004820152602960248201527f455243313135353a2073657474696e6720617070726f76616c2073746174757360448201527f20666f722073656c66000000000000000000000000000000000000000000000060648201526084016109dc565b6001600160a01b03838116600081815260666020908152604080832094871680845294825291829020805460ff191686151590811790915591519182527f17307eab39ab6107e8899845ad3d59bd9653f200f220920489ca2b5937696c31910160405180910390a3505050565b6001600160a01b038416612c875760405162461bcd60e51b815260206004820152602560248201527f455243313135353a207472616e7366657220746f20746865207a65726f206164604482015264647265737360d81b60648201526084016109dc565b336000612c9385612e10565b90506000612ca085612e10565b905060008681526065602090815260408083206001600160a01b038c16845290915290205485811015612d285760405162461bcd60e51b815260206004820152602a60248201527f455243313135353a20696e73756666696369656e742062616c616e636520666f60448201526939103a3930b739b332b960b11b60648201526084016109dc565b60008781526065602090815260408083206001600160a01b038d8116855292528083208985039055908a16825281208054889290612d67908490614139565b909155505060408051888152602081018890526001600160a01b03808b16928c821692918816917fc3d58168c5ae7397731d063d5bbf3d657854427343f4c083240f7aacaa2d0f62910160405180910390a4612dc7848a8a8a8a8a612e69565b505050505050505050565b60006001600160e01b031982167f7965db0b000000000000000000000000000000000000000000000000000000001480610a685750610a6882613406565b60408051600180825281830190925260609160009190602080830190803683370190505090508281600081518110612e5857634e487b7160e01b600052603260045260246000fd5b602090810291909101015292915050565b6001600160a01b0384163b156110775760405163f23a6e6160e01b81526001600160a01b0385169063f23a6e6190612ead9089908990889088908890600401614087565b602060405180830381600087803b158015612ec757600080fd5b505af1925050508015612ef7575060408051601f3d908101601f19168201909252612ef491810190613d22565b60015b612fad57612f03614266565b806308c379a01415612f3d5750612f1861427d565b80612f235750612f3f565b8060405162461bcd60e51b81526004016109dc9190614102565b505b60405162461bcd60e51b815260206004820152603460248201527f455243313135353a207472616e7366657220746f206e6f6e204552433131353560448201527f526563656976657220696d706c656d656e74657200000000000000000000000060648201526084016109dc565b6001600160e01b0319811663f23a6e6160e01b146122115760405162461bcd60e51b815260206004820152602860248201527f455243313135353a204552433131353552656365697665722072656a656374656044820152676420746f6b656e7360c01b60648201526084016109dc565b6001600160a01b0384163b156110775760405163bc197c8160e01b81526001600160a01b0385169063bc197c81906130629089908990889088908890600401614029565b602060405180830381600087803b15801561307c57600080fd5b505af19250505080156130ac575060408051601f3d908101601f191682019092526130a991810190613d22565b60015b6130b857612f03614266565b6001600160e01b0319811663bc197c8160e01b146122115760405162461bcd60e51b815260206004820152602860248201527f455243313135353a204552433131353552656365697665722072656a656374656044820152676420746f6b656e7360c01b60648201526084016109dc565b600082815260c9602090815260408083206001600160a01b038516845290915290205460ff1661112557613167816001600160a01b0316601461346f565b61317283602061346f565b604051602001613183929190613fa8565b60408051601f198184030181529082905262461bcd60e51b82526109dc91600401614102565b6131b16118ec565b6113a05760405162461bcd60e51b815260206004820152601460248201527f5061757361626c653a206e6f742070617573656400000000000000000000000060448201526064016109dc565b600054610100900460ff166132685760405162461bcd60e51b815260206004820152602b60248201527f496e697469616c697a61626c653a20636f6e7472616374206973206e6f74206960448201526a6e697469616c697a696e6760a81b60648201526084016109dc565b60fb805460ff19169055565b600054610100900460ff166132df5760405162461bcd60e51b815260206004820152602b60248201527f496e697469616c697a61626c653a20636f6e7472616374206973206e6f74206960448201526a6e697469616c697a696e6760a81b60648201526084016109dc565b6132e7613696565b6113a0600033613701565b600082815260c96020526040808220600101805490849055905190918391839186917fbd79b86ffe0ab8e8776151514217cd7cacd52c909f66475c3af44e129f0b00ff9190a4505050565b600054610100900460ff166133a85760405162461bcd60e51b815260206004820152602b60248201527f496e697469616c697a61626c653a20636f6e7472616374206973206e6f74206960448201526a6e697469616c697a696e6760a81b60648201526084016109dc565b6115008161370b565b6133b96118ec565b156113a05760405162461bcd60e51b815260206004820152601060248201527f5061757361626c653a207061757365640000000000000000000000000000000060448201526064016109dc565b60006001600160e01b03198216636cdb3d1360e11b148061343757506001600160e01b031982166303a24d0760e21b145b80610a6857507f01ffc9a7000000000000000000000000000000000000000000000000000000006001600160e01b0319831614610a68565b6060600061347e836002614151565b613489906002614139565b67ffffffffffffffff8111156134af57634e487b7160e01b600052604160045260246000fd5b6040519080825280601f01601f1916602001820160405280156134d9576020820181803683370190505b5090507f30000000000000000000000000000000000000000000000000000000000000008160008151811061351e57634e487b7160e01b600052603260045260246000fd5b60200101906001600160f81b031916908160001a9053507f78000000000000000000000000000000000000000000000000000000000000008160018151811061357757634e487b7160e01b600052603260045260246000fd5b60200101906001600160f81b031916908160001a905350600061359b846002614151565b6135a6906001614139565b90505b6001811115613647577f303132333435363738396162636465660000000000000000000000000000000085600f16601081106135f557634e487b7160e01b600052603260045260246000fd5b1a60f81b82828151811061361957634e487b7160e01b600052603260045260246000fd5b60200101906001600160f81b031916908160001a90535060049490941c93613640816141a0565b90506135a9565b508315610ce95760405162461bcd60e51b815260206004820181905260248201527f537472696e67733a20686578206c656e67746820696e73756666696369656e7460448201526064016109dc565b600054610100900460ff166113a05760405162461bcd60e51b815260206004820152602b60248201527f496e697469616c697a61626c653a20636f6e7472616374206973206e6f74206960448201526a6e697469616c697a696e6760a81b60648201526084016109dc565b6111258282612774565b80516111259060679060208401905b828054613726906141b7565b90600052602060002090601f016020900481019282613748576000855561378e565b82601f1061376157805160ff191683800117855561378e565b8280016001018555821561378e579182015b8281111561378e578251825591602001919060010190613773565b5061379a9291506137d8565b5090565b82805482825590600052602060002090810192821561378e579160200282018281111561378e578251825591602001919060010190613773565b5b8082111561379a57600081556001016137d9565b80356001600160a01b0381168114610a6b57600080fd5b600082601f830112613814578081fd5b8135602061382182614115565b60405161382e82826141f2565b8381528281019150858301855b8581101561386457613852898684358b01016138d6565b8452928401929084019060010161383b565b5090979650505050505050565b600082601f830112613881578081fd5b8135602061388e82614115565b60405161389b82826141f2565b8381528281019150858301838502870184018810156138b8578586fd5b855b85811015613864578135845292840192908401906001016138ba565b600082601f8301126138e6578081fd5b813567ffffffffffffffff81111561390057613900614250565b604051613917601f8301601f1916602001826141f2565b81815284602083860101111561392b578283fd5b816020850160208301379081016020019190915292915050565b600060208284031215613956578081fd5b610ce9826137ed565b60008060408385031215613971578081fd5b61397a836137ed565b9150613988602084016137ed565b90509250929050565b600080600080600060a086880312156139a8578081fd5b6139b1866137ed565b94506139bf602087016137ed565b9350604086013567ffffffffffffffff808211156139db578283fd5b6139e789838a01613871565b945060608801359150808211156139fc578283fd5b613a0889838a01613871565b93506080880135915080821115613a1d578283fd5b50613a2a888289016138d6565b9150509295509295909350565b600080600080600060a08688031215613a4e578081fd5b613a57866137ed565b9450613a65602087016137ed565b93506040860135925060608601359150608086013567ffffffffffffffff811115613a8e578182fd5b613a2a888289016138d6565b600080600060608486031215613aae578283fd5b613ab7846137ed565b9250602084013567ffffffffffffffff80821115613ad3578384fd5b613adf87838801613871565b93506040860135915080821115613af4578283fd5b50613b0186828701613804565b9150509250925092565b60008060008060808587031215613b20578182fd5b613b29856137ed565b9350602085013567ffffffffffffffff80821115613b45578384fd5b613b5188838901613871565b94506040870135915080821115613b66578384fd5b613b7288838901613871565b93506060870135915080821115613b87578283fd5b50613b9487828801613804565b91505092959194509250565b60008060408385031215613bb2578182fd5b613bbb836137ed565b915060208301358015158114613bcf578182fd5b809150509250929050565b60008060408385031215613bec578182fd5b613bf5836137ed565b946020939093013593505050565b60008060408385031215613c15578182fd5b823567ffffffffffffffff80821115613c2c578384fd5b818501915085601f830112613c3f578384fd5b81356020613c4c82614115565b604051613c5982826141f2565b8381528281019150858301838502870184018b1015613c76578889fd5b8896505b84871015613c9f57613c8b816137ed565b835260019690960195918301918301613c7a565b5096505086013592505080821115613cb5578283fd5b50613cc285828601613871565b9150509250929050565b600060208284031215613cdd578081fd5b5035919050565b60008060408385031215613cf6578182fd5b82359150613988602084016137ed565b600060208284031215613d17578081fd5b8135610ce98161430f565b600060208284031215613d33578081fd5b8151610ce98161430f565b600060208284031215613d4f578081fd5b813567ffffffffffffffff811115613d65578182fd5b613d71848285016138d6565b949350505050565b60008060408385031215613d8b578182fd5b823567ffffffffffffffff811115613da1578283fd5b613dad858286016138d6565b95602094909401359450505050565b600080600060608486031215613dd0578081fd5b833567ffffffffffffffff811115613de6578182fd5b613df2868287016138d6565b9660208601359650604090950135949350505050565b60008060408385031215613e1a578182fd5b82359150602083013567ffffffffffffffff811115613e37578182fd5b613cc2858286016138d6565b60008060408385031215613e55578182fd5b50508035926020909101359150565b6000815180845260208085019450808401835b83811015613e9357815187529582019590820190600101613e77565b509495945050505050565b60008151808452613eb6816020860160208601614170565b601f01601f19169290920160200192915050565b60008151613edc818560208601614170565b9290920192915050565b60008251613ef8818460208701614170565b9190910192915050565b8254600090819060028104600180831680613f1e57607f831692505b6020808410821415613f3e57634e487b7160e01b87526022600452602487fd5b818015613f525760018114613f6357613f8f565b60ff19861689528489019650613f8f565b60008b815260209020885b86811015613f875781548b820152908501908301613f6e565b505084890196505b505050505050613f9f8185613eca565b95945050505050565b60007f416363657373436f6e74726f6c3a206163636f756e742000000000000000000082528351613fe0816017850160208801614170565b7f206973206d697373696e6720726f6c6520000000000000000000000000000000601791840191820152835161401d816028840160208801614170565b01602801949350505050565b60006001600160a01b03808816835280871660208401525060a0604083015261405560a0830186613e64565b82810360608401526140678186613e64565b9050828103608084015261407b8185613e9e565b98975050505050505050565b60006001600160a01b03808816835280871660208401525084604083015283606083015260a060808301526140bf60a0830184613e9e565b979650505050505050565b600060208252610ce96020830184613e64565b6000604082526140f06040830185613e64565b8281036020840152613f9f8185613e64565b600060208252610ce96020830184613e9e565b600067ffffffffffffffff82111561412f5761412f614250565b5060209081020190565b6000821982111561414c5761414c61423a565b500190565b600081600019048311821515161561416b5761416b61423a565b500290565b60005b8381101561418b578181015183820152602001614173565b8381111561419a576000848401525b50505050565b6000816141af576141af61423a565b506000190190565b6002810460018216806141cb57607f821691505b602082108114156141ec57634e487b7160e01b600052602260045260246000fd5b50919050565b601f8201601f1916810167ffffffffffffffff8111828210171561421857614218614250565b6040525050565b60006000198214156142335761423361423a565b5060010190565b634e487b7160e01b600052601160045260246000fd5b634e487b7160e01b600052604160045260246000fd5b600060033d11156118f357600481823e5160e01c90565b600060443d101561428d576118f3565b6040516003193d81016004833e81513d67ffffffffffffffff81602484011181841117156142bf5750505050506118f3565b82850191508151818111156142d9575050505050506118f3565b843d87010160208285010111156142f5575050505050506118f3565b614304602082860101876141f2565b509094505050505090565b6001600160e01b03198116811461150057600080fdfea2646970667358221220c01bbb2b952dbfaa381dfea629cc58060b57fc1f71a0e2a8c503432f61c7d39464736f6c63430008020033",
	"linkReferences": {},
	"deployedLinkReferences": {}
}