{
	"_format": "hh-sol-artifact-1",
	"contractName": "Collectible721",
	"sourceName": "contracts/Collectible721.sol",
	"abi": [
		{
			"anonymous": false,
			"inputs": [
				{
					"indexed": true,
					"internalType": "address",
					"name": "owner",
					"type": "address"
				},
				{
					"indexed": true,
					"internalType": "address",
					"name": "approved",
					"type": "address"
				},
				{
					"indexed": true,
					"internalType": "uint256",
					"name": "tokenId",
					"type": "uint256"
				}
			],
			"name": "Approval",
			"type": "event"
		},
		{
			"anonymous": false,
			"inputs": [
				{
					"indexed": true,
					"internalType": "address",
					"name": "owner",
					"type": "address"
				},
				{
					"indexed": true,
					"internalType": "address",
					"name": "operator",
					"type": "address"
				},
				{
					"indexed": false,
					"internalType": "bool",
					"name": "approved",
					"type": "bool"
				}
			],
			"name": "ApprovalForAll",
			"type": "event"
		},
		{
			"anonymous": false,
			"inputs": [
				{
					"indexed": false,
					"internalType": "uint8",
					"name": "version",
					"type": "uint8"
				}
			],
			"name": "Initialized",
			"type": "event"
		},
		{
			"anonymous": false,
			"inputs": [
				{
					"indexed": false,
					"internalType": "address",
					"name": "account",
					"type": "address"
				}
			],
			"name": "Paused",
			"type": "event"
		},
		{
			"anonymous": false,
			"inputs": [
				{
					"indexed": true,
					"internalType": "bytes32",
					"name": "role",
					"type": "bytes32"
				},
				{
					"indexed": true,
					"internalType": "bytes32",
					"name": "previousAdminRole",
					"type": "bytes32"
				},
				{
					"indexed": true,
					"internalType": "bytes32",
					"name": "newAdminRole",
					"type": "bytes32"
				}
			],
			"name": "RoleAdminChanged",
			"type": "event"
		},
		{
			"anonymous": false,
			"inputs": [
				{
					"indexed": true,
					"internalType": "bytes32",
					"name": "role",
					"type": "bytes32"
				},
				{
					"indexed": true,
					"internalType": "address",
					"name": "account",
					"type": "address"
				},
				{
					"indexed": true,
					"internalType": "address",
					"name": "sender",
					"type": "address"
				}
			],
			"name": "RoleGranted",
			"type": "event"
		},
		{
			"anonymous": false,
			"inputs": [
				{
					"indexed": true,
					"internalType": "bytes32",
					"name": "role",
					"type": "bytes32"
				},
				{
					"indexed": true,
					"internalType": "address",
					"name": "account",
					"type": "address"
				},
				{
					"indexed": true,
					"internalType": "address",
					"name": "sender",
					"type": "address"
				}
			],
			"name": "RoleRevoked",
			"type": "event"
		},
		{
			"anonymous": false,
			"inputs": [
				{
					"indexed": true,
					"internalType": "address",
					"name": "from",
					"type": "address"
				},
				{
					"indexed": true,
					"internalType": "address",
					"name": "to",
					"type": "address"
				},
				{
					"indexed": true,
					"internalType": "uint256",
					"name": "tokenId",
					"type": "uint256"
				}
			],
			"name": "Transfer",
			"type": "event"
		},
		{
			"anonymous": false,
			"inputs": [
				{
					"indexed": false,
					"internalType": "address",
					"name": "account",
					"type": "address"
				}
			],
			"name": "Unpaused",
			"type": "event"
		},
		{
			"inputs": [],
			"name": "BURNER_ROLE",
			"outputs": [
				{
					"internalType": "bytes32",
					"name": "",
					"type": "bytes32"
				}
			],
			"stateMutability": "view",
			"type": "function"
		},
		{
			"inputs": [],
			"name": "DEFAULT_ADMIN_ROLE",
			"outputs": [
				{
					"internalType": "bytes32",
					"name": "",
					"type": "bytes32"
				}
			],
			"stateMutability": "view",
			"type": "function"
		},
		{
			"inputs": [],
			"name": "MINTER_ROLE",
			"outputs": [
				{
					"internalType": "bytes32",
					"name": "",
					"type": "bytes32"
				}
			],
			"stateMutability": "view",
			"type": "function"
		},
		{
			"inputs": [],
			"name": "PAUSER_ROLE",
			"outputs": [
				{
					"internalType": "bytes32",
					"name": "",
					"type": "bytes32"
				}
			],
			"stateMutability": "view",
			"type": "function"
		},
		{
			"inputs": [],
			"name": "URI_SETTER_ROLE",
			"outputs": [
				{
					"internalType": "bytes32",
					"name": "",
					"type": "bytes32"
				}
			],
			"stateMutability": "view",
			"type": "function"
		},
		{
			"inputs": [
				{
					"internalType": "address",
					"name": "_admin",
					"type": "address"
				},
				{
					"internalType": "bool",
					"name": "_isAutoIncrementalId",
					"type": "bool"
				}
			],
			"name": "__Collectible721_init",
			"outputs": [],
			"stateMutability": "nonpayable",
			"type": "function"
		},
		{
			"inputs": [
				{
					"internalType": "bytes32",
					"name": "feature",
					"type": "bytes32"
				}
			],
			"name": "addFeature",
			"outputs": [],
			"stateMutability": "nonpayable",
			"type": "function"
		},
		{
			"inputs": [
				{
					"internalType": "address",
					"name": "to",
					"type": "address"
				},
				{
					"internalType": "uint256",
					"name": "tokenId",
					"type": "uint256"
				}
			],
			"name": "approve",
			"outputs": [],
			"stateMutability": "nonpayable",
			"type": "function"
		},
		{
			"inputs": [
				{
					"internalType": "address",
					"name": "owner",
					"type": "address"
				}
			],
			"name": "balanceOf",
			"outputs": [
				{
					"internalType": "uint256",
					"name": "",
					"type": "uint256"
				}
			],
			"stateMutability": "view",
			"type": "function"
		},
		{
			"inputs": [
				{
					"internalType": "uint256",
					"name": "tokenId",
					"type": "uint256"
				}
			],
			"name": "getApproved",
			"outputs": [
				{
					"internalType": "address",
					"name": "",
					"type": "address"
				}
			],
			"stateMutability": "view",
			"type": "function"
		},
		{
			"inputs": [],
			"name": "getMyTokenIds",
			"outputs": [
				{
					"internalType": "uint256[]",
					"name": "",
					"type": "uint256[]"
				}
			],
			"stateMutability": "view",
			"type": "function"
		},
		{
			"inputs": [
				{
					"internalType": "bytes32",
					"name": "role",
					"type": "bytes32"
				}
			],
			"name": "getRoleAdmin",
			"outputs": [
				{
					"internalType": "bytes32",
					"name": "",
					"type": "bytes32"
				}
			],
			"stateMutability": "view",
			"type": "function"
		},
		{
			"inputs": [
				{
					"internalType": "uint256",
					"name": "_tokenId",
					"type": "uint256"
				}
			],
			"name": "giveAccessToExchangeToSale",
			"outputs": [],
			"stateMutability": "nonpayable",
			"type": "function"
		},
		{
			"inputs": [
				{
					"internalType": "bytes32",
					"name": "role",
					"type": "bytes32"
				},
				{
					"internalType": "address",
					"name": "account",
					"type": "address"
				}
			],
			"name": "grantRole",
			"outputs": [],
			"stateMutability": "nonpayable",
			"type": "function"
		},
		{
			"inputs": [
				{
					"internalType": "address",
					"name": "_to",
					"type": "address"
				}
			],
			"name": "grantRoleBurner",
			"outputs": [],
			"stateMutability": "nonpayable",
			"type": "function"
		},
		{
			"inputs": [
				{
					"internalType": "address",
					"name": "_to",
					"type": "address"
				}
			],
			"name": "grantRoleMinter",
			"outputs": [],
			"stateMutability": "nonpayable",
			"type": "function"
		},
		{
			"inputs": [
				{
					"internalType": "address",
					"name": "_to",
					"type": "address"
				}
			],
			"name": "grantRolePauser",
			"outputs": [],
			"stateMutability": "nonpayable",
			"type": "function"
		},
		{
			"inputs": [
				{
					"internalType": "address",
					"name": "_to",
					"type": "address"
				}
			],
			"name": "grantRoleURISetter",
			"outputs": [],
			"stateMutability": "nonpayable",
			"type": "function"
		},
		{
			"inputs": [
				{
					"internalType": "bytes32",
					"name": "role",
					"type": "bytes32"
				},
				{
					"internalType": "address",
					"name": "account",
					"type": "address"
				}
			],
			"name": "hasRole",
			"outputs": [
				{
					"internalType": "bool",
					"name": "",
					"type": "bool"
				}
			],
			"stateMutability": "view",
			"type": "function"
		},
		{
			"inputs": [
				{
					"internalType": "address",
					"name": "owner",
					"type": "address"
				},
				{
					"internalType": "address",
					"name": "operator",
					"type": "address"
				}
			],
			"name": "isApprovedForAll",
			"outputs": [
				{
					"internalType": "bool",
					"name": "",
					"type": "bool"
				}
			],
			"stateMutability": "view",
			"type": "function"
		},
		{
			"inputs": [],
			"name": "isAutoIncrementalId",
			"outputs": [
				{
					"internalType": "bool",
					"name": "",
					"type": "bool"
				}
			],
			"stateMutability": "view",
			"type": "function"
		},
		{
			"inputs": [
				{
					"internalType": "bytes32",
					"name": "feature",
					"type": "bytes32"
				}
			],
			"name": "isFeatureEnabled",
			"outputs": [
				{
					"internalType": "bool",
					"name": "",
					"type": "bool"
				}
			],
			"stateMutability": "view",
			"type": "function"
		},
		{
			"inputs": [
				{
					"internalType": "uint256",
					"name": "_tokenId",
					"type": "uint256"
				}
			],
			"name": "isTokenAvailable",
			"outputs": [
				{
					"internalType": "bool",
					"name": "isAvailable",
					"type": "bool"
				}
			],
			"stateMutability": "view",
			"type": "function"
		},
		{
			"inputs": [
				{
					"internalType": "string",
					"name": "_tokenURI",
					"type": "string"
				}
			],
			"name": "isURIAvailable",
			"outputs": [
				{
					"internalType": "bool",
					"name": "isAvailable",
					"type": "bool"
				}
			],
			"stateMutability": "view",
			"type": "function"
		},
		{
			"inputs": [],
			"name": "name",
			"outputs": [
				{
					"internalType": "string",
					"name": "",
					"type": "string"
				}
			],
			"stateMutability": "view",
			"type": "function"
		},
		{
			"inputs": [
				{
					"internalType": "uint256",
					"name": "tokenId",
					"type": "uint256"
				}
			],
			"name": "ownerOf",
			"outputs": [
				{
					"internalType": "address",
					"name": "",
					"type": "address"
				}
			],
			"stateMutability": "view",
			"type": "function"
		},
		{
			"inputs": [],
			"name": "pause",
			"outputs": [],
			"stateMutability": "nonpayable",
			"type": "function"
		},
		{
			"inputs": [],
			"name": "paused",
			"outputs": [
				{
					"internalType": "bool",
					"name": "",
					"type": "bool"
				}
			],
			"stateMutability": "view",
			"type": "function"
		},
		{
			"inputs": [
				{
					"internalType": "bytes32",
					"name": "feature",
					"type": "bytes32"
				}
			],
			"name": "removeFeature",
			"outputs": [],
			"stateMutability": "nonpayable",
			"type": "function"
		},
		{
			"inputs": [
				{
					"internalType": "bytes32",
					"name": "role",
					"type": "bytes32"
				},
				{
					"internalType": "address",
					"name": "account",
					"type": "address"
				}
			],
			"name": "renounceRole",
			"outputs": [],
			"stateMutability": "nonpayable",
			"type": "function"
		},
		{
			"inputs": [
				{
					"internalType": "bytes32",
					"name": "role",
					"type": "bytes32"
				},
				{
					"internalType": "address",
					"name": "account",
					"type": "address"
				}
			],
			"name": "revokeRole",
			"outputs": [],
			"stateMutability": "nonpayable",
			"type": "function"
		},
		{
			"inputs": [
				{
					"internalType": "address",
					"name": "_to",
					"type": "address"
				}
			],
			"name": "revokeRoleBurner",
			"outputs": [],
			"stateMutability": "nonpayable",
			"type": "function"
		},
		{
			"inputs": [
				{
					"internalType": "address",
					"name": "_to",
					"type": "address"
				}
			],
			"name": "revokeRoleMinter",
			"outputs": [],
			"stateMutability": "nonpayable",
			"type": "function"
		},
		{
			"inputs": [
				{
					"internalType": "address",
					"name": "_to",
					"type": "address"
				}
			],
			"name": "revokeRolePauser",
			"outputs": [],
			"stateMutability": "nonpayable",
			"type": "function"
		},
		{
			"inputs": [
				{
					"internalType": "address",
					"name": "_to",
					"type": "address"
				}
			],
			"name": "revokeRoleURISetter",
			"outputs": [],
			"stateMutability": "nonpayable",
			"type": "function"
		},
		{
			"inputs": [
				{
					"internalType": "string",
					"name": "_tokenURI",
					"type": "string"
				},
				{
					"internalType": "uint256",
					"name": "_tokenId",
					"type": "uint256"
				}
			],
			"name": "safeMint",
			"outputs": [
				{
					"internalType": "uint256",
					"name": "tokenId",
					"type": "uint256"
				}
			],
			"stateMutability": "nonpayable",
			"type": "function"
		},
		{
			"inputs": [
				{
					"internalType": "string",
					"name": "_tokenURI",
					"type": "string"
				}
			],
			"name": "safeMint",
			"outputs": [
				{
					"internalType": "uint256",
					"name": "tokenId",
					"type": "uint256"
				}
			],
			"stateMutability": "nonpayable",
			"type": "function"
		},
		{
			"inputs": [
				{
					"internalType": "address",
					"name": "from",
					"type": "address"
				},
				{
					"internalType": "address",
					"name": "to",
					"type": "address"
				},
				{
					"internalType": "uint256",
					"name": "tokenId",
					"type": "uint256"
				}
			],
			"name": "safeTransferFrom",
			"outputs": [],
			"stateMutability": "nonpayable",
			"type": "function"
		},
		{
			"inputs": [
				{
					"internalType": "address",
					"name": "from",
					"type": "address"
				},
				{
					"internalType": "address",
					"name": "to",
					"type": "address"
				},
				{
					"internalType": "uint256",
					"name": "tokenId",
					"type": "uint256"
				},
				{
					"internalType": "bytes",
					"name": "data",
					"type": "bytes"
				}
			],
			"name": "safeTransferFrom",
			"outputs": [],
			"stateMutability": "nonpayable",
			"type": "function"
		},
		{
			"inputs": [
				{
					"internalType": "address",
					"name": "operator",
					"type": "address"
				},
				{
					"internalType": "bool",
					"name": "approved",
					"type": "bool"
				}
			],
			"name": "setApprovalForAll",
			"outputs": [],
			"stateMutability": "nonpayable",
			"type": "function"
		},
		{
			"inputs": [
				{
					"internalType": "address",
					"name": "_exchangeAddress",
					"type": "address"
				}
			],
			"name": "setExchangeContractAddress",
			"outputs": [],
			"stateMutability": "nonpayable",
			"type": "function"
		},
		{
			"inputs": [
				{
					"internalType": "uint256",
					"name": "_tokenId",
					"type": "uint256"
				},
				{
					"internalType": "string",
					"name": "_tokenURI",
					"type": "string"
				}
			],
			"name": "setTokenURI",
			"outputs": [],
			"stateMutability": "nonpayable",
			"type": "function"
		},
		{
			"inputs": [
				{
					"internalType": "bytes4",
					"name": "_interfaceId",
					"type": "bytes4"
				}
			],
			"name": "supportsInterface",
			"outputs": [
				{
					"internalType": "bool",
					"name": "interfaceSupported",
					"type": "bool"
				}
			],
			"stateMutability": "view",
			"type": "function"
		},
		{
			"inputs": [],
			"name": "symbol",
			"outputs": [
				{
					"internalType": "string",
					"name": "",
					"type": "string"
				}
			],
			"stateMutability": "view",
			"type": "function"
		},
		{
			"inputs": [
				{
					"internalType": "uint256",
					"name": "tokenId",
					"type": "uint256"
				}
			],
			"name": "tokenURI",
			"outputs": [
				{
					"internalType": "string",
					"name": "",
					"type": "string"
				}
			],
			"stateMutability": "view",
			"type": "function"
		},
		{
			"inputs": [
				{
					"internalType": "address",
					"name": "_to",
					"type": "address"
				}
			],
			"name": "transferAdminRole",
			"outputs": [],
			"stateMutability": "nonpayable",
			"type": "function"
		},
		{
			"inputs": [
				{
					"internalType": "address",
					"name": "_from",
					"type": "address"
				},
				{
					"internalType": "address",
					"name": "_to",
					"type": "address"
				},
				{
					"internalType": "uint256",
					"name": "_tokenId",
					"type": "uint256"
				}
			],
			"name": "transferAssetAndPrice",
			"outputs": [],
			"stateMutability": "payable",
			"type": "function"
		},
		{
			"inputs": [
				{
					"internalType": "address",
					"name": "from",
					"type": "address"
				},
				{
					"internalType": "address",
					"name": "to",
					"type": "address"
				},
				{
					"internalType": "uint256",
					"name": "tokenId",
					"type": "uint256"
				}
			],
			"name": "transferFrom",
			"outputs": [],
			"stateMutability": "nonpayable",
			"type": "function"
		},
		{
			"inputs": [],
			"name": "unpause",
			"outputs": [],
			"stateMutability": "nonpayable",
			"type": "function"
		}
	],
	"bytecode": "0x608060405234801561001057600080fd5b50613655806100206000396000f3fe60806040526004361061031e5760003560e01c8063695850fb116101a5578063a22cb465116100ec578063c87b56dd11610095578063d547741f1161006f578063d547741f14610937578063e63ab1e914610957578063e985e9c51461098b578063fdd5d37f146109d45761031e565b8063c87b56dd146108c3578063d487274e146108e3578063d5391393146109035761031e565b8063b0501a62116100c6578063b0501a6214610863578063b88d4fde14610883578063c71bb9f7146108a35761031e565b8063a22cb46514610803578063a5de997914610823578063ada8f919146108435761031e565b80638456cb591161014e57806395d89b411161012857806395d89b41146107b95780639740ea29146107ce578063a217fddf146107ee5761031e565b80638456cb591461073e5780638f815d8a1461075357806391d14854146107735761031e565b80637ba0ca0d1161017f5780637ba0ca0d146106c85780637f345710146106ea578063837577481461071e5761031e565b8063695850fb14610668578063702cbbae1461068857806370a08231146106a85761031e565b80632f2ff15d11610269578063470e700c116102125780635c975abb116101ec5780635c975abb146106105780636352211e14610628578063640e6912146106485761031e565b8063470e700c146105b057806347af267b146105d05780634de8c956146105f05761031e565b80633f4ba83a116102435780633f4ba83a1461055b57806342842e0e1461057057806346b145e1146105905761031e565b80632f2ff15d146104fb57806336568abe1461051b5780633d3995761461053b5761031e565b8063162094c4116102cb57806323b872dd116102a557806323b872dd14610469578063248a9ca314610489578063282c51f3146104c75761031e565b8063162094c4146104075780631bb1058a146104275780631c7a3c9d146104495761031e565b8063081812fc116102fc578063081812fc1461039c578063095ea7b3146103d4578063130b0aa7146103f45761031e565b806301ffc9a71461032357806305fd13d91461035857806306fdde031461037a575b600080fd5b34801561032f57600080fd5b5061034361033e36600461323a565b6109f4565b60405190151581526020015b60405180910390f35b34801561036457600080fd5b50610378610373366004613200565b610a57565b005b34801561038657600080fd5b5061038f610acf565b60405161034f91906134a5565b3480156103a857600080fd5b506103bc6103b7366004613200565b610b61565b6040516001600160a01b03909116815260200161034f565b3480156103e057600080fd5b506103786103ef3660046131d7565b610b88565b6103786104023660046130e9565b610cba565b34801561041357600080fd5b506103786104223660046132e8565b610da8565b34801561043357600080fd5b506101325461034390600160a01b900460ff1681565b34801561045557600080fd5b5061037861046436600461309d565b610e52565b34801561047557600080fd5b506103786104843660046130e9565b610ecc565b34801561049557600080fd5b506104b96104a4366004613200565b600090815260fb602052604090206001015490565b60405190815260200161034f565b3480156104d357600080fd5b506104b97f3c11d16cbaffd01df69ce1c404f6340ee057498f5f00246190ea54220576a84881565b34801561050757600080fd5b50610378610516366004613218565b610f53565b34801561052757600080fd5b50610378610536366004613218565b610f78565b34801561054757600080fd5b50610378610556366004613200565b611000565b34801561056757600080fd5b5061037861100a565b34801561057c57600080fd5b5061037861058b3660046130e9565b61108a565b34801561059c57600080fd5b506104b96105ab3660046132a5565b6110a5565b3480156105bc57600080fd5b506103786105cb36600461309d565b611274565b3480156105dc57600080fd5b506103436105eb366004613200565b61129e565b3480156105fc57600080fd5b5061037861060b366004613200565b6112c0565b34801561061c57600080fd5b5060c95460ff16610343565b34801561063457600080fd5b506103bc610643366004613200565b6112ca565b34801561065457600080fd5b5061037861066336600461319d565b61132f565b34801561067457600080fd5b506104b9610683366004613272565b61151d565b34801561069457600080fd5b506103436106a3366004613200565b61169f565b3480156106b457600080fd5b506104b96106c336600461309d565b6116be565b3480156106d457600080fd5b506106dd611758565b60405161034f9190613461565b3480156106f657600080fd5b506104b97f7804d923f43a17d325d77e781528e0793b2edd9890ab45fc64efd7b4b427744c81565b34801561072a57600080fd5b50610343610739366004613272565b6117b9565b34801561074a57600080fd5b506103786117e6565b34801561075f57600080fd5b5061037861076e36600461309d565b611864565b34801561077f57600080fd5b5061034361078e366004613218565b600091825260fb602090815260408084206001600160a01b0393909316845291905290205460ff1690565b3480156107c557600080fd5b5061038f61188e565b3480156107da57600080fd5b506103786107e936600461309d565b61189d565b3480156107fa57600080fd5b506104b9600081565b34801561080f57600080fd5b5061037861081e36600461319d565b6118c7565b34801561082f57600080fd5b5061037861083e36600461309d565b6118d2565b34801561084f57600080fd5b5061037861085e36600461309d565b6118fc565b34801561086f57600080fd5b5061037861087e36600461309d565b611912565b34801561088f57600080fd5b5061037861089e366004613124565b61193c565b3480156108af57600080fd5b506103786108be36600461309d565b6119ca565b3480156108cf57600080fd5b5061038f6108de366004613200565b6119f4565b3480156108ef57600080fd5b506103786108fe36600461309d565b611b06565b34801561090f57600080fd5b506104b97f9f2df0fed2c77648de5860a4cc508cd0818c85b8b8a1ab4ceeef8d981c8956a681565b34801561094357600080fd5b50610378610952366004613218565b611b2c565b34801561096357600080fd5b506104b97f65d7a28e3265b37a6474929f336521b332c1681b933f6cb9f3376673440d862a81565b34801561099757600080fd5b506103436109a63660046130b7565b6001600160a01b039182166000908152606a6020908152604080832093909416825291909152205460ff1690565b3480156109e057600080fd5b506103786109ef36600461309d565b611b51565b60006001600160e01b031982166380ac58cd60e01b1480610a2557506001600160e01b03198216635b5e139f60e01b145b80610a4057506001600160e01b0319821663377e7a5b60e01b145b80610a4f5750610a4f82611b7b565b90505b919050565b610131546001600160a01b0316610ab55760405162461bcd60e51b815260206004820152601960248201527f45786368616e67652061646472657373206973206e756c6c2e0000000000000060448201526064015b60405180910390fd5b61013154610acc906001600160a01b031682610b88565b50565b606060658054610ade9061355d565b80601f0160208091040260200160405190810160405280929190818152602001828054610b0a9061355d565b8015610b575780601f10610b2c57610100808354040283529160200191610b57565b820191906000526020600020905b815481529060010190602001808311610b3a57829003601f168201915b5050505050905090565b6000610b6c82611ba0565b506000908152606960205260409020546001600160a01b031690565b6000610b93826112ca565b9050806001600160a01b0316836001600160a01b03161415610c1d5760405162461bcd60e51b815260206004820152602160248201527f4552433732313a20617070726f76616c20746f2063757272656e74206f776e6560448201527f72000000000000000000000000000000000000000000000000000000000000006064820152608401610aac565b336001600160a01b0382161480610c395750610c3981336109a6565b610cab5760405162461bcd60e51b815260206004820152603e60248201527f4552433732313a20617070726f76652063616c6c6572206973206e6f7420746f60448201527f6b656e206f776e6572206e6f7220617070726f76656420666f7220616c6c00006064820152608401610aac565b610cb58383611c04565b505050565b610131546001600160a01b0316610d135760405162461bcd60e51b815260206004820152601960248201527f45786368616e67652061646472657373206973206e756c6c2e000000000000006044820152606401610aac565b610131546001600160a01b0316336001600160a01b031614610d9d5760405162461bcd60e51b815260206004820152602b60248201527f546869732063616c6c206973206e6f742066726f6d207468652045786368616e60448201527f676520636f6e74726163740000000000000000000000000000000000000000006064820152608401610aac565b610cb5838383610ecc565b610dd27f7804d923f43a17d325d77e781528e0793b2edd9890ab45fc64efd7b4b427744c3361078e565b610e445760405162461bcd60e51b815260206004820152602260248201527f5573657220646f6573206e6f742068617665205552492073657474657220726f60448201527f6c650000000000000000000000000000000000000000000000000000000000006064820152608401610aac565b610e4e8282611c72565b5050565b610e5d60003361078e565b610ea95760405162461bcd60e51b815260206004820152601460248201527f55736572206973206e6f7420616e2041646d696e0000000000000000000000006044820152606401610aac565b61013180546001600160a01b0319166001600160a01b0392909216919091179055565b610ed63382611d1b565b610f485760405162461bcd60e51b815260206004820152602e60248201527f4552433732313a2063616c6c6572206973206e6f7420746f6b656e206f776e6560448201527f72206e6f7220617070726f7665640000000000000000000000000000000000006064820152608401610aac565b610cb5838383611d99565b600082815260fb6020526040902060010154610f6e81611f66565b610cb58383611f70565b6001600160a01b0381163314610ff65760405162461bcd60e51b815260206004820152602f60248201527f416363657373436f6e74726f6c3a2063616e206f6e6c792072656e6f756e636560448201527f20726f6c657320666f722073656c6600000000000000000000000000000000006064820152608401610aac565b610e4e8282612012565b610acc8130611b2c565b6110347f65d7a28e3265b37a6474929f336521b332c1681b933f6cb9f3376673440d862a3361078e565b6110805760405162461bcd60e51b815260206004820152601e60248201527f5573657220646f6573206e6f7420686176652050617573657220726f6c6500006044820152606401610aac565b611088612095565b565b610cb58383836040518060200160405280600081525061193c565b61013254600090600160a01b900460ff16156111035760405162461bcd60e51b815260206004820152601660248201527f446f206e6f742070617373206120746f6b656e204944000000000000000000006044820152606401610aac565b61012e836040516111149190613359565b9081526040519081900360200190205460ff16156111745760405162461bcd60e51b815260206004820152601760248201527f546f6b656e55524920616c7265616479206578697374730000000000000000006044820152606401610aac565b600082815261013060205260409020805461118e9061355d565b1590506111dd5760405162461bcd60e51b815260206004820152601660248201527f546f6b656e496420616c726561647920657869737473000000000000000000006044820152606401610aac565b60008281526101306020908152604090912084516111fd92860190612f58565b50600161012e846040516112119190613359565b908152604051908190036020019020805491151560ff1990921691909117905561124161123b3390565b836120e7565b61124b8284611c72565b5033600090815261012f6020908152604082208054600181018255908352912001819055919050565b610acc7f65d7a28e3265b37a6474929f336521b332c1681b933f6cb9f3376673440d862a82610f53565b600081815260fb6020908152604080832030845290915281205460ff16610a4f565b610acc8130610f53565b6000818152606760205260408120546001600160a01b031680610a4f5760405162461bcd60e51b815260206004820152601860248201527f4552433732313a20696e76616c696420746f6b656e20494400000000000000006044820152606401610aac565b600054610100900460ff161580801561134f5750600054600160ff909116105b806113695750303b158015611369575060005460ff166001145b6113db5760405162461bcd60e51b815260206004820152602e60248201527f496e697469616c697a61626c653a20636f6e747261637420697320616c72656160448201527f647920696e697469616c697a65640000000000000000000000000000000000006064820152608401610aac565b6000805460ff1916600117905580156113fe576000805461ff0019166101001790555b611406612101565b61140e612174565b6114826040518060400160405280600e81526020017f436f6c6c65637469626c653732310000000000000000000000000000000000008152506040518060400160405280600381526020017f434f4c0000000000000000000000000000000000000000000000000000000000815250612293565b61013280546001600160a01b0319166001600160a01b038516177fffffffffffffffffffffff00ffffffffffffffffffffffffffffffffffffffff16600160a01b841515021790556114d3836118fc565b8015610cb5576000805461ff0019169055604051600181527f7f26b83ff96e1f2b6a682f133852f6798a09c465da95921460cefb38474024989060200160405180910390a1505050565b61013254600090600160a01b900460ff1661157a5760405162461bcd60e51b815260206004820152600f60248201527f50617373206120746f6b656e20494400000000000000000000000000000000006044820152606401610aac565b61012e8260405161158b9190613359565b9081526040519081900360200190205460ff16156115eb5760405162461bcd60e51b815260206004820152601760248201527f546f6b656e55524920616c7265616479206578697374730000000000000000006044820152606401610aac565b60006115f761012d5490565b905061160861012d80546001019055565b600081815261013060209081526040909120845161162892860190612f58565b50600161012e8460405161163c9190613359565b908152604051908190036020019020805491151560ff1990921691909117905561166c6116663390565b826120e7565b6116768184611c72565b33600090815261012f602090815260408220805460018101825590835291200181905592915050565b6000818152606760205260408120546001600160a01b03161515610a4f565b60006001600160a01b03821661173c5760405162461bcd60e51b815260206004820152602960248201527f4552433732313a2061646472657373207a65726f206973206e6f74206120766160448201527f6c6964206f776e657200000000000000000000000000000000000000000000006064820152608401610aac565b506001600160a01b031660009081526068602052604090205490565b33600090815261012f6020908152604091829020805483518184028101840190945280845260609392830182828015610b5757602002820191906000526020600020905b81548152602001906001019080831161179c575050505050905090565b600061012e826040516117cc9190613359565b9081526040519081900360200190205460ff169050919050565b6118107f65d7a28e3265b37a6474929f336521b332c1681b933f6cb9f3376673440d862a3361078e565b61185c5760405162461bcd60e51b815260206004820152601e60248201527f5573657220646f6573206e6f7420686176652050617573657220726f6c6500006044820152606401610aac565b611088612308565b610acc7f9f2df0fed2c77648de5860a4cc508cd0818c85b8b8a1ab4ceeef8d981c8956a682610f53565b606060668054610ade9061355d565b610acc7f3c11d16cbaffd01df69ce1c404f6340ee057498f5f00246190ea54220576a84882610f53565b610e4e338383612345565b610acc7f9f2df0fed2c77648de5860a4cc508cd0818c85b8b8a1ab4ceeef8d981c8956a682611b2c565b611907600082610f53565b610acc600033610952565b610acc7f7804d923f43a17d325d77e781528e0793b2edd9890ab45fc64efd7b4b427744c82610f53565b6119463383611d1b565b6119b85760405162461bcd60e51b815260206004820152602e60248201527f4552433732313a2063616c6c6572206973206e6f7420746f6b656e206f776e6560448201527f72206e6f7220617070726f7665640000000000000000000000000000000000006064820152608401610aac565b6119c484848484612414565b50505050565b610acc7f3c11d16cbaffd01df69ce1c404f6340ee057498f5f00246190ea54220576a84882611b2c565b60606119ff82611ba0565b60008281526097602052604081208054611a189061355d565b80601f0160208091040260200160405190810160405280929190818152602001828054611a449061355d565b8015611a915780601f10611a6657610100808354040283529160200191611a91565b820191906000526020600020905b815481529060010190602001808311611a7457829003601f168201915b505050505090506000611aaf60408051602081019091526000815290565b9050805160001415611ac357509050610a52565b815115611af5578082604051602001611add929190613375565b60405160208183030381529060405292505050610a52565b611afe84612492565b949350505050565b610acc7f65d7a28e3265b37a6474929f336521b332c1681b933f6cb9f3376673440d862a825b600082815260fb6020526040902060010154611b4781611f66565b610cb58383612012565b610acc7f7804d923f43a17d325d77e781528e0793b2edd9890ab45fc64efd7b4b427744c82611b2c565b60006001600160e01b0319821663377e7a5b60e01b1480610a4f5750610a4f82612506565b6000818152606760205260409020546001600160a01b0316610acc5760405162461bcd60e51b815260206004820152601860248201527f4552433732313a20696e76616c696420746f6b656e20494400000000000000006044820152606401610aac565b600081815260696020526040902080546001600160a01b0319166001600160a01b0384169081179091558190611c39826112ca565b6001600160a01b03167f8c5be1e5ebec7d5bd14f71427d1e84f3dd0314c0f7b2291e5b200ac8c7c3b92560405160405180910390a45050565b6000828152606760205260409020546001600160a01b0316611cfc5760405162461bcd60e51b815260206004820152602e60248201527f45524337323155524953746f726167653a2055524920736574206f66206e6f6e60448201527f6578697374656e7420746f6b656e0000000000000000000000000000000000006064820152608401610aac565b60008281526097602090815260409091208251610cb592840190612f58565b600080611d27836112ca565b9050806001600160a01b0316846001600160a01b03161480611d6e57506001600160a01b038082166000908152606a602090815260408083209388168352929052205460ff165b80611afe5750836001600160a01b0316611d8784610b61565b6001600160a01b031614949350505050565b826001600160a01b0316611dac826112ca565b6001600160a01b031614611e285760405162461bcd60e51b815260206004820152602560248201527f4552433732313a207472616e736665722066726f6d20696e636f72726563742060448201527f6f776e65720000000000000000000000000000000000000000000000000000006064820152608401610aac565b6001600160a01b038216611ea35760405162461bcd60e51b8152602060048201526024808201527f4552433732313a207472616e7366657220746f20746865207a65726f2061646460448201527f72657373000000000000000000000000000000000000000000000000000000006064820152608401610aac565b611eae600082611c04565b6001600160a01b0383166000908152606860205260408120805460019290611ed7908490613503565b90915550506001600160a01b0382166000908152606860205260408120805460019290611f059084906134b8565b909155505060008181526067602052604080822080546001600160a01b0319166001600160a01b0386811691821790925591518493918716917fddf252ad1be2c89b69c2b068fc378daa952ba7f163c4a11628f55a4df523b3ef91a4610cb5565b610acc8133612544565b600082815260fb602090815260408083206001600160a01b038516845290915290205460ff16610e4e57600082815260fb602090815260408083206001600160a01b03851684529091529020805460ff19166001179055611fce3390565b6001600160a01b0316816001600160a01b0316837f2f8788117e7eff1d82e926ec794901d17c78024a50270940304540a733656f0d60405160405180910390a45050565b600082815260fb602090815260408083206001600160a01b038516845290915290205460ff1615610e4e57600082815260fb602090815260408083206001600160a01b0385168085529252808320805460ff1916905551339285917ff6391f5c32d9c69d2a47ea670b442974b53935d1edc7fd64eb21e047a839171b9190a45050565b61209d6125c4565b60c9805460ff191690557f5db9ee0a495bf2e6ff9c91a7834c1ba4fdd244a5e8aa4e537bd38aeae4b073aa335b6040516001600160a01b03909116815260200160405180910390a1565b610e4e828260405180602001604052806000815250612616565b600054610100900460ff1661216c5760405162461bcd60e51b815260206004820152602b60248201527f496e697469616c697a61626c653a20636f6e7472616374206973206e6f74206960448201526a6e697469616c697a696e6760a81b6064820152608401610aac565b611088612694565b600054610100900460ff166121df5760405162461bcd60e51b815260206004820152602b60248201527f496e697469616c697a61626c653a20636f6e7472616374206973206e6f74206960448201526a6e697469616c697a696e6760a81b6064820152608401610aac565b6121e761270b565b6122127f3c11d16cbaffd01df69ce1c404f6340ee057498f5f00246190ea54220576a8486000612789565b61223d7f65d7a28e3265b37a6474929f336521b332c1681b933f6cb9f3376673440d862a6000612789565b6122687f7804d923f43a17d325d77e781528e0793b2edd9890ab45fc64efd7b4b427744c6000612789565b6110887f9f2df0fed2c77648de5860a4cc508cd0818c85b8b8a1ab4ceeef8d981c8956a66000612789565b600054610100900460ff166122fe5760405162461bcd60e51b815260206004820152602b60248201527f496e697469616c697a61626c653a20636f6e7472616374206973206e6f74206960448201526a6e697469616c697a696e6760a81b6064820152608401610aac565b610e4e82826127d4565b612310612866565b60c9805460ff191660011790557f62e78cea01bee320cd4e420270b5ea74000d11b0c9f74754ebdbfc544b05a2586120ca3390565b816001600160a01b0316836001600160a01b031614156123a75760405162461bcd60e51b815260206004820152601960248201527f4552433732313a20617070726f766520746f2063616c6c6572000000000000006044820152606401610aac565b6001600160a01b038381166000818152606a6020908152604080832094871680845294825291829020805460ff191686151590811790915591519182527f17307eab39ab6107e8899845ad3d59bd9653f200f220920489ca2b5937696c31910160405180910390a3505050565b61241f848484611d99565b61242b848484846128b9565b6119c45760405162461bcd60e51b815260206004820152603260248201527f4552433732313a207472616e7366657220746f206e6f6e20455243373231526560448201527131b2b4bb32b91034b6b83632b6b2b73a32b960711b6064820152608401610aac565b606061249d82611ba0565b60006124b460408051602081019091526000815290565b905060008151116124d457604051806020016040528060008152506124ff565b806124de84612a11565b6040516020016124ef929190613375565b6040516020818303038152906040525b9392505050565b60006001600160e01b031982167f7965db0b000000000000000000000000000000000000000000000000000000001480610a4f5750610a4f82612b2c565b600082815260fb602090815260408083206001600160a01b038516845290915290205460ff16610e4e57612582816001600160a01b03166014612b95565b61258d836020612b95565b60405160200161259e9291906133a4565b60408051601f198184030181529082905262461bcd60e51b8252610aac916004016134a5565b60c95460ff166110885760405162461bcd60e51b815260206004820152601460248201527f5061757361626c653a206e6f74207061757365640000000000000000000000006044820152606401610aac565b6126208383612da0565b61262d60008484846128b9565b610cb55760405162461bcd60e51b815260206004820152603260248201527f4552433732313a207472616e7366657220746f206e6f6e20455243373231526560448201527131b2b4bb32b91034b6b83632b6b2b73a32b960711b6064820152608401610aac565b600054610100900460ff166126ff5760405162461bcd60e51b815260206004820152602b60248201527f496e697469616c697a61626c653a20636f6e7472616374206973206e6f74206960448201526a6e697469616c697a696e6760a81b6064820152608401610aac565b60c9805460ff19169055565b600054610100900460ff166127765760405162461bcd60e51b815260206004820152602b60248201527f496e697469616c697a61626c653a20636f6e7472616374206973206e6f74206960448201526a6e697469616c697a696e6760a81b6064820152608401610aac565b61277e612ee3565b611088600033612f4e565b600082815260fb6020526040808220600101805490849055905190918391839186917fbd79b86ffe0ab8e8776151514217cd7cacd52c909f66475c3af44e129f0b00ff9190a4505050565b600054610100900460ff1661283f5760405162461bcd60e51b815260206004820152602b60248201527f496e697469616c697a61626c653a20636f6e7472616374206973206e6f74206960448201526a6e697469616c697a696e6760a81b6064820152608401610aac565b8151612852906065906020850190612f58565b508051610cb5906066906020840190612f58565b60c95460ff16156110885760405162461bcd60e51b815260206004820152601060248201527f5061757361626c653a20706175736564000000000000000000000000000000006044820152606401610aac565b60006001600160a01b0384163b15612a0657604051630a85bd0160e11b81526001600160a01b0385169063150b7a02906128fd903390899088908890600401613425565b602060405180830381600087803b15801561291757600080fd5b505af1925050508015612947575060408051601f3d908101601f1916820190925261294491810190613256565b60015b6129ec573d808015612975576040519150601f19603f3d011682016040523d82523d6000602084013e61297a565b606091505b5080516129e45760405162461bcd60e51b815260206004820152603260248201527f4552433732313a207472616e7366657220746f206e6f6e20455243373231526560448201527131b2b4bb32b91034b6b83632b6b2b73a32b960711b6064820152608401610aac565b805181602001fd5b6001600160e01b031916630a85bd0160e11b149050611afe565b506001949350505050565b606081612a3657506040805180820190915260018152600360fc1b6020820152610a52565b8160005b8115612a605780612a4a81613598565b9150612a599050600a836134d0565b9150612a3a565b60008167ffffffffffffffff811115612a8957634e487b7160e01b600052604160045260246000fd5b6040519080825280601f01601f191660200182016040528015612ab3576020820181803683370190505b5090505b8415611afe57612ac8600183613503565b9150612ad5600a866135b3565b612ae09060306134b8565b60f81b818381518110612b0357634e487b7160e01b600052603260045260246000fd5b60200101906001600160f81b031916908160001a905350612b25600a866134d0565b9450612ab7565b60006001600160e01b031982166380ac58cd60e01b1480612b5d57506001600160e01b03198216635b5e139f60e01b145b80610a4f57507f01ffc9a7000000000000000000000000000000000000000000000000000000006001600160e01b0319831614610a4f565b60606000612ba48360026134e4565b612baf9060026134b8565b67ffffffffffffffff811115612bd557634e487b7160e01b600052604160045260246000fd5b6040519080825280601f01601f191660200182016040528015612bff576020820181803683370190505b509050600360fc1b81600081518110612c2857634e487b7160e01b600052603260045260246000fd5b60200101906001600160f81b031916908160001a9053507f780000000000000000000000000000000000000000000000000000000000000081600181518110612c8157634e487b7160e01b600052603260045260246000fd5b60200101906001600160f81b031916908160001a9053506000612ca58460026134e4565b612cb09060016134b8565b90505b6001811115612d51577f303132333435363738396162636465660000000000000000000000000000000085600f1660108110612cff57634e487b7160e01b600052603260045260246000fd5b1a60f81b828281518110612d2357634e487b7160e01b600052603260045260246000fd5b60200101906001600160f81b031916908160001a90535060049490941c93612d4a81613546565b9050612cb3565b5083156124ff5760405162461bcd60e51b815260206004820181905260248201527f537472696e67733a20686578206c656e67746820696e73756666696369656e746044820152606401610aac565b6001600160a01b038216612df65760405162461bcd60e51b815260206004820181905260248201527f4552433732313a206d696e7420746f20746865207a65726f20616464726573736044820152606401610aac565b6000818152606760205260409020546001600160a01b031615612e5b5760405162461bcd60e51b815260206004820152601c60248201527f4552433732313a20746f6b656e20616c7265616479206d696e746564000000006044820152606401610aac565b6001600160a01b0382166000908152606860205260408120805460019290612e849084906134b8565b909155505060008181526067602052604080822080546001600160a01b0319166001600160a01b03861690811790915590518392907fddf252ad1be2c89b69c2b068fc378daa952ba7f163c4a11628f55a4df523b3ef908290a4610e4e565b600054610100900460ff166110885760405162461bcd60e51b815260206004820152602b60248201527f496e697469616c697a61626c653a20636f6e7472616374206973206e6f74206960448201526a6e697469616c697a696e6760a81b6064820152608401610aac565b610e4e8282611f70565b828054612f649061355d565b90600052602060002090601f016020900481019282612f865760008555612fcc565b82601f10612f9f57805160ff1916838001178555612fcc565b82800160010185558215612fcc579182015b82811115612fcc578251825591602001919060010190612fb1565b50612fd8929150612fdc565b5090565b5b80821115612fd85760008155600101612fdd565b600067ffffffffffffffff8084111561300c5761300c6135f3565b604051601f8501601f19908116603f01168101908282118183101715613034576130346135f3565b8160405280935085815286868601111561304d57600080fd5b858560208301376000602087830101525050509392505050565b80356001600160a01b0381168114610a5257600080fd5b600082601f83011261308e578081fd5b6124ff83833560208501612ff1565b6000602082840312156130ae578081fd5b6124ff82613067565b600080604083850312156130c9578081fd5b6130d283613067565b91506130e060208401613067565b90509250929050565b6000806000606084860312156130fd578081fd5b61310684613067565b925061311460208501613067565b9150604084013590509250925092565b60008060008060808587031215613139578081fd5b61314285613067565b935061315060208601613067565b925060408501359150606085013567ffffffffffffffff811115613172578182fd5b8501601f81018713613182578182fd5b61319187823560208401612ff1565b91505092959194509250565b600080604083850312156131af578182fd5b6131b883613067565b9150602083013580151581146131cc578182fd5b809150509250929050565b600080604083850312156131e9578182fd5b6131f283613067565b946020939093013593505050565b600060208284031215613211578081fd5b5035919050565b6000806040838503121561322a578182fd5b823591506130e060208401613067565b60006020828403121561324b578081fd5b81356124ff81613609565b600060208284031215613267578081fd5b81516124ff81613609565b600060208284031215613283578081fd5b813567ffffffffffffffff811115613299578182fd5b611afe8482850161307e565b600080604083850312156132b7578182fd5b823567ffffffffffffffff8111156132cd578283fd5b6132d98582860161307e565b95602094909401359450505050565b600080604083850312156132fa578182fd5b82359150602083013567ffffffffffffffff811115613317578182fd5b6133238582860161307e565b9150509250929050565b6000815180845261334581602086016020860161351a565b601f01601f19169290920160200192915050565b6000825161336b81846020870161351a565b9190910192915050565b6000835161338781846020880161351a565b83519083019061339b81836020880161351a565b01949350505050565b60007f416363657373436f6e74726f6c3a206163636f756e7420000000000000000000825283516133dc81601785016020880161351a565b7f206973206d697373696e6720726f6c6520000000000000000000000000000000601791840191820152835161341981602884016020880161351a565b01602801949350505050565b60006001600160a01b03808716835280861660208401525083604083015260806060830152613457608083018461332d565b9695505050505050565b6020808252825182820181905260009190848201906040850190845b818110156134995783518352928401929184019160010161347d565b50909695505050505050565b6000602082526124ff602083018461332d565b600082198211156134cb576134cb6135c7565b500190565b6000826134df576134df6135dd565b500490565b60008160001904831182151516156134fe576134fe6135c7565b500290565b600082821015613515576135156135c7565b500390565b60005b8381101561353557818101518382015260200161351d565b838111156119c45750506000910152565b600081613555576135556135c7565b506000190190565b60028104600182168061357157607f821691505b6020821081141561359257634e487b7160e01b600052602260045260246000fd5b50919050565b60006000198214156135ac576135ac6135c7565b5060010190565b6000826135c2576135c26135dd565b500690565b634e487b7160e01b600052601160045260246000fd5b634e487b7160e01b600052601260045260246000fd5b634e487b7160e01b600052604160045260246000fd5b6001600160e01b031981168114610acc57600080fdfea2646970667358221220e1d01fb79cbaf97d3e418da925c4caddee6821b56e40f83a461380b05239cbc764736f6c63430008020033",
	"linkReferences": {},
	"deployedLinkReferences": {}
}